:100000000C947A010C9499010C9499010C94990127
:100010000C9499010C9499010C9499010C949901F8
:100020000C9499010C9458020C9499010C94990128
:100030000C9499010C9499010C9499010C949901D8
:100040000C9499010C9499010C9499010C949901C8
:100050000C9499010C9499010C9499010C949901B8
:100060000C9499010C9499010C9499010C949901A8
:100070000C9499010C94FC100C9499010C94990126
:100080000C9499010C9499010C9499010C94990188
:100090000C947F380C9499010C9499010C94F848B5
:1000A0000C9499010C9499010C94B2520C94C35283
:1000B0000C9499010C9499010C9499010C940C0ADC
:1000C0000C9499010C9499010C9499010C94990148
:1000D0000C9499010C9499010C9499010C94990138
:1000E0000C9499010C9499010C9499010C94990128
:1000F0000C94EB530C9499010C9499010C94BF53FC
:100100000C9499010C9499010C9499010C94990107
:100110000C9499010C9499010C9499010C949901F7
:10012000AB394E39B83E203D6B39B03CC63CE43C5F
:10013000023D5A3B773BAA3BDE3B213C653C7E3C83
:10014000973CF33F3D3A533A7D3AA33AAD3ABC3A35
:100150004139CA3ADD3AEE3A0D3B283B2F3B353B5D
:10016000413B493B8F414139C440EA403C415C41FD
:100170003540464051400140AE3FEC3F143A6040AC
:10018000834086408B40A43DC23DD33DF03D013EBF
:100190000B3E263E663E713E333E3A3E4139413982
:1001A000413941394139413941394139493E5D3E51
:1001B000903E94417241D03E123F1F3F2D3F453F3C
:1001C000943F0D40C7394139FD39A23EA540993EC3
:1001D0002D3D923D05A84CCDB2D44EB93836A9027A
:1001E0000C50B9918688083CA6AAAA2ABE00000035
:1001F000803F6E616E00696E660000407A10F35AAF
:1002000000A0724E18090010A5D4E80000E8764856
:10021000170000E40B54020000CA9A3B000000E102
:10022000F505000080969800000040420F00000095
:10023000A08601000000102700000000E803000075
:1002400000006400000000000A000000000001003F
:10025000000000002C76D888DC674F0823DFC1DF60
:10026000AE59E1B1B796E5E3E453C63AE651997663
:1002700096E8E6C28426EB898C9B62ED407C6FFC9D
:10028000EFBC9C9F40F2BAA56FA5F490055A2AF7DF
:100290005C936B6CF9676DC11BFCE0E40D47FEF5E8
:1002A00020E6B500D0ED902E030094357705008050
:1002B000841E080000204E0A000000C80C333333AF
:1002C000330F986E12831141EF8D2114893BE6554F
:1002D00016CFFEE6DB18D1844B381BF77C1D901D32
:1002E000A4BBE424203284725E228100C9F124EC94
:1002F000A1E53D2711241FBECFEFD1E4DEBFCDBF66
:1003000013E0A0E0B2E0ECE7FEEB00E00BBF02C0C0
:1003100007900D92A632B107D9F711E2A6E2B3E039
:1003200001C01D92A335B107E1F70E944F0F0C9455
:100330003C5F0C94000081E080930B0280914B0A9B
:1003400086FF04C080914B0A87FDADC080914B0AA7
:1003500086FF28C08091980290919902892B19F10B
:1003600080919502811129C00E94A92610929902BC
:100370001092980210929702109296021092950293
:1003800081E00E94990B1092AF021092AE0210927F
:10039000AD021092AC021092AB024FEF60E080E031
:1003A0000C94320A089583E00E94990B0E94070A78
:1003B000892B09F476C00C9493070E94743580ED64
:1003C000809360168EE080936116809198029091E0
:1003D000990290936216809198029091990280936D
:1003E00063161092641686E78093651688E0809302
:1003F000661610926716109268161092691610927F
:100400006A168FEF80936B1610926C1682E18093C0
:100410006D166091611620E04FEF5FEF80E696E188
:100420000E94B2476091611620E04FEF5FEF80E6D7
:1004300096E10E94B2476091611620E04FEF5FEFB6
:1004400080E696E10E94B2476091611620E04FEF8E
:100450005FEF80E696E10E94B2476091611620E06E
:100460004FEF5FEF80E696E10E94B2476091611620
:1004700020E04FEF5FEF80E696E10E94B2471092D6
:10048000311110929A0280E090E0FC01EE0FFF1F04
:10049000E052FA4E11821082019680349105A9F73C
:1004A00063CF0C9446070E946D2783E00C94990B50
:1004B0001F920F920FB60F9211240F900FBE0F9044
:1004C0001F9018950E94320680919802909199028F
:1004D000892B31F08091AE029091AF020E943236AA
:1004E0000C94A535CF93DF93CDB7DEB729970FB620
:1004F000F894DEBF0FBECDBF0E94320680919802F5
:1005000090919902892B21F08091950281111EC052
:100510008091AB02813009F443C0833009F440C0BC
:100520008091980290919902892B29F080919502EF
:10053000882309F465C00E943E3729960FB6F894C7
:10054000DEBF0FBECDBFDF91CF9108958091AE0287
:100550009091AF02892B09F04DC080919A0290E0F2
:10056000019663E070E00E94AB5B80939A028091F9
:100570009A02813009F455C008F045C08091AE025E
:100580009091AF02892B21F60E94A9260E94743512
:100590004FEF60E080E00E94320A10923111CDCF1F
:1005A00082E08093AB028091980290919902892B0E
:1005B000F1F080ED898389E08A838091980290919F
:1005C00099029B8380919802909199028C831D825D
:1005D0008DE48E8383E08F83188682E1898720E013
:1005E0004FEF5FEF69E0CE0101960E94B2470E9493
:1005F000A926A3CF80919A02882309F489CFADCF91
:100600000E947D379ACF823009F082CF0E94A926BE
:100610004FEF6FEF80E00E94320A89E08093311142
:100620008CCF0E94743540E06FEF80E00E94320A68
:1006300087E08093311181CF80ED97E0A0E0B0E0BA
:100640008093510A9093520AA093530AB093540A8C
:1006500081E08093500A8BE991E09093560A809351
:10066000550A80E59AE00C94374880E59AE00C94AE
:1006700003488F929F92AF92BF92CF92DF92EF92F8
:10068000FF920F931F93CF93DF93CDB7DEB72C97D5
:100690000FB6F894DEBF0FBECDBFE62EE8269091D0
:1006A0004B02992309F455C0E6FA442740F9E7FCC8
:1006B0009DC0E5FC446066FD6EC030E021E067FD52
:1006C0006EC0226065FF6EC0346080E289838AE07C
:1006D0008A838091510290915202A0915302B0916D
:1006E00054028B839C83AD83BE834F8338872987D5
:1006F0001A868091550290915602892B09F454C0B4
:100700002091300F3091310F809155029091560217
:100710002817390709F448C04091550250915602F4
:1007200021E06AE0CE0101960E94B2472C960FB6F6
:10073000F894DEBF0FBECDBFDF91CF911F910F9117
:10074000FF90EF90DF90CF90BF90AF909F908F90F1
:1007500008956623B9F090910B029111E7CFE6FC62
:1007600049C020E030E0E7FC5BC0E5FE4EC065FD1F
:100770004CC086FD4EC085FD7DC087FFD7CF0E944F
:100780007202D4CF90910B02992329F310920B029D
:1007900010920A02CBCF31E020E067FF92CF3260A7
:1007A00065FD92CF246091CF8091C6024091300FB9
:1007B0005091310F21E06AE070E0882369F0CE01AA
:1007C00001960E94D938FC014181BC0182E00E945F
:1007D000AD4A0E94174BAACFCE0101960E94D9388C
:1007E000FC01618170E00E94BF38A0CF4260E5FE4D
:1007F00062CF60CF6C878B8766FF19C00E941C0395
:1008000020E030E06C858B85AECF232B09F48ECFB2
:10081000B0CF87FD49C085FD2DC00E94620286CF02
:1008200067FD0CC010920A0221E030E09ECF0E94CA
:10083000350321E030E06C858B8595CF91E0909376
:100840000A028090510290905202A0905302B09000
:10085000540280924C0A90924D0AA0924E0AB09295
:100860004F0A909131119150923008F07ECF109242
:1008700031117BCF0E943206809155029091560231
:10088000892B49F04FEF60E080E00E94320A10921D
:100890005602109255021092AF021092AE021092C0
:1008A000AD021092AC0242CF81E06C870E94990B9E
:1008B0000E94AF376C85662319F081E080930B02AC
:1008C0008091360F811126C08091AF0F811122C017
:1008D0008091281081111EC030E7C32E3FE0D32E37
:1008E000E12CF12CF60111821082FFEFEF1AFF0AC2
:1008F0000BED1FE029EC3FE340E050E0BA01C701F7
:100900000E946B1A89E7C80ED11CE3E0EE16F104D1
:1009100049F70CCF0E94A92609CFCF9380915102AD
:1009200090915202A0915302B091540240910C0256
:1009300050910D0260910E0270910F02841B950B75
:10094000A60BB70B4997A105B105F0F0C9B1C09549
:10095000C07EC0934B0A809110028C17A9F06C2FB7
:100960000E9439038091510290915202A09153024A
:10097000B091540280930C0290930D02A0930E024A
:10098000B0930F02C0931002CF9108951092B1005E
:10099000249808950C94C604CF93DF9382E4809347
:1009A000B000A3EBB0E082EB8C93E1EBF0E085E0EC
:1009B00080832FEF32E597E0215030409040E1F7FF
:1009C00000C000001082CFE1DEE42197F1F700C003
:1009D000000095E89C938083DFEF22E537E0D1505B
:1009E00020403040E1F700C000001082249881E0F0
:1009F0008093DF0D84E690E0A0E0B0E08093E00D0E
:100A00009093E10DA093E20DB093E30D8AEC94E096
:100A10009093E50D8093E40DDF91CF9108959C01B3
:100A2000009709F18A3F910578F085E08093B10045
:100A300064E274EF80E090E0249A40E050E00E948D
:100A4000E15B2093B300089587E08093B10064E8F0
:100A50007EE180E090E0249A40E050E00E94E15B7B
:100A60002093B30008950C94C604CF93DF93C82F4E
:100A7000CF7082958F7009F161E090E0660F9F5F03
:100A80009813FCCF70E0D0E0CC0FDD1FCC0FDD1F42
:100A9000CF5EDD4F882777FD8095982F0E94AD555A
:100AA000288139814A815B810E94F6560E947F55D8
:100AB000CB01DF91CF910C940F0561E070E0E3CFA3
:100AC0000F931F93CF93DF9300D0CDB7DEB70E9473
:100AD000C60400914202109143020115110509F468
:100AE00080C08091440290914502801791070CF0DC
:100AF0005EC03091EE0D20E0880F991F820F931F8A
:100B000045960E949F100E9435053091EE0D20E021
:100B10008091440290914502880F991F820F931F84
:100B200044960E949F1080932B0340914402509161
:100B300045024F5F5F4F50934502409344026091DE
:100B40004202709143026417750794F40E948C5D11
:100B50008A830E948C5D89830E948C5D4A816981B1
:100B60000F900F90DF91CF911F910F910C94320A4B
:100B70001092EF0D282F30E040E050E06091270305
:100B8000709128038091290390912A030E94BF5BF2
:100B90002093F00D3093F10D4093F20D5093F30D2F
:100BA00080E695E09093F50D8093F40DCFCF81E032
:100BB0008093EF0D1092450210924402109243026E
:100BC000109242020E94C604109241024FEF60E070
:100BD00080E00F900F90DF91CF911F910F910C94B7
:100BE000320A9091EE0D80E042960E949F10809311
:100BF00026039091EE0D80E043960E949F10082FEF
:100C000010E010934302009342022091260330E04B
:100C100040E050E060E879EA83E090E00E94BF5B4A
:100C200020932703309328034093290350932A03EA
:100C300058CF91E0909341029093EF0D1092F00DF8
:100C40001092F10D1092F20D1092F30D20E635E0A6
:100C50003093F50D2093F40D8093EE0D8FEE9DE013
:100C60000C94374886EE90E00E940F058FED9DE0D2
:100C70000C9437480F931F93809151029091520228
:100C8000A0915302B091540280930D0E90930E0EDA
:100C9000A0930F0EB093100E1092FE0D84EF91E012
:100CA000A0E0B0E08093FF0D9093000EA093010EA2
:100CB000B093020E82ED97E09093040E8093030EA2
:100CC0008EEF9DE00E9437480BED1FE029EC3FE3DB
:100CD00040E050E0BA0181E090E00E946B1A0BED19
:100CE0001FE029EC3FE340E050E0BA0182E090E0F1
:100CF0000E946B1A0BED1FE029EC3FE340E050E04F
:100D0000BA0183E090E00E946B1A81E090E090933A
:100D10004A02809349028DEC9CECACEABFE38093DD
:100D20006E0290936F02A0937002B0937102809351
:100D30006A0290936B02A0936C02B0936D0283ECF5
:100D400098EBA2E3BEE38093740290937502A093A4
:100D50007602B093770284E190E0909373028093DF
:100D600072021F910F9108958091190E8230B9F18E
:100D70008091470F9091480F892BB9F18091C00F56
:100D80009091C10F892B89F10E94A92641E05FEF64
:100D90006FEF7FEF81E090E00E940E1E41E05FEF79
:100DA0006FEF7FEF82E090E00E940E1E81E0809363
:100DB000FE0D88E893E1A0E0B0E08093FF0D9093F2
:100DC000000EA093010EB093020E85EB98E0909375
:100DD000040E8093030E8EEF9DE00C9437488091B3
:100DE000470F9091480F892B09F40895809139108D
:100DF00090913A10892B41F608958091190E823016
:100E0000B9F18091470F9091480F892BB9F18091EA
:100E1000C00F9091C10F892B89F10E94A9264FEF35
:100E200050E060E070E081E090E00E940E1E4FEF25
:100E300050E060E070E082E090E00E940E1E81E0F1
:100E40008093FE0D88E893E1A0E0B0E08093FF0D71
:100E50009093000EA093010EB093020E88E499E0E7
:100E60009093040E8093030E8EEF9DE00C94374810
:100E70008091470F9091480F892B09F40895809134
:100E8000391090913A10892B41F608950F931F93D2
:100E900081E090E090934802809347021092710F96
:100EA0001092700F1092EA0F1092E90F10926310D7
:100EB000109262100BED1FE029EC3FE340E050E0A0
:100EC000BA010E946B1A0BED1FE029EC3FE340E0F2
:100ED00050E0BA0182E090E00E946B1A0BED1FE037
:100EE00029EC3FE340E050E0BA0183E090E00E944B
:100EF0006B1A1092FE0D84EF91E0A0E0B0E08093B9
:100F0000FF0D9093000EA093010EB093020E8DEF93
:100F100096E09093040E8093030E8EEF9DE01F9158
:100F20000F910C94374810924802109247028EEFAE
:100F30009DE00E9403480E94A9264FEF60E080E0F8
:100F40000E94320A83EC98EBA2EBBEE3809374021A
:100F500090937502A0937602B093770284E690E0B6
:100F60009093730280937202089540E060E08FEFE7
:100F70000E94320A2FEF81EE94E021508040904091
:100F8000E1F700C0000040E060E080E00E94320A2B
:100F90002FEF81EE94E0215080409040E1F700C0B7
:100FA0000000E3CF0F931F93CF93DF938091510203
:100FB00090915202A0915302B091540240910D0EB3
:100FC00050910E0E60910F0E7091100E841B950BB8
:100FD000A60BB70B81349747AB41B10508F05CC055
:100FE0008091190E823009F43FC08091470F909193
:100FF000480F892B41F48091360F81110BC00E945C
:10100000A9260E94B5078091C00F9091C10F892B2E
:1010100009F055C08091AF0F811106C08091C00FBB
:101020009091C10F892B59F30E948C5D8C010E9415
:101030008C5DEC010E948C5DFC012FEF30E0C8015B
:10104000B9010E94AB5B482FCE01B9010E94AB5B96
:10105000C82FCF01B9010E94AB5B6C2FDF91CF91FC
:101060001F910F910C94320A8091470F9091480F75
:10107000892B09F474C08091391090913A10892B12
:10108000F1F4809128108111CFCF80913910909187
:101090003A10892B49F6B3CF81E08093FE0D40E0F2
:1010A0006FEF80E00E94320A0E94A9261092480247
:1010B00010924702DF91CF911F910F910895809177
:1010C0004602813041F10BED1FE029EC3FE34BED8F
:1010D0005FE069E471E481E090E00E946B1A0BED3F
:1010E0001FE029EC3FE34BED5FE069E471E482E04F
:1010F00090E00E946B1A0BED1FE029EC3FE34BEDF3
:101100005FE069E471E483E090E00E946B1A81E0A3
:101110008093460289CF0BED1FE029EC3FE340E0CE
:1011200050E0BA0181E090E00E946B1A0BED1FE0E5
:1011300029EC3FE340E050E0BA0182E090E00E94F9
:101140006B1A0BED1FE029EC3FE340E050E0BA01E1
:1011500083E090E00E946B1A1092460265CF809166
:10116000360F882309F44BCF8CCFEF92FF920F9369
:101170001F93CF93DF93CDB7DEB72C970FB6F894BC
:10118000DEBF0FBECDBF0E94A9260CE61FE0EE24F5
:10119000E394F12CEC0EFD1EF80164817581882723
:1011A00077FD8095982F0E94AD552BED3FE049ECDF
:1011B00050E40E94F6569B01AC01F80160817181F8
:1011C000828193810E94A754F70161937193819367
:1011D00091937F0107581F4FF0E1073D1F07E1F68C
:1011E0008091190E28E530EA4BE851EC8230D1F1BC
:1011F00069817A818B819C810E94F25618160CF4C9
:1012000045C028E530EA4BE851EC6D817E818F8145
:1012100098850E94F2561816CCF181E08093FE0D5D
:1012200088EE93E0A0E0B0E08093FF0D9093000E75
:10123000A093010EB093020E8AE396E09093040E01
:101240008093030E8EEF9DE02C960FB6F894DEBFD0
:101250000FBECDBFDF91CF911F910F91FF90EF9007
:101260000C94374869817A818B819C810E94F25667
:10127000181664F028E530EA4BE851EC69857A8568
:101280008B859C850E94F25618163CF60E94B50785
:10129000EF92FF920F931F93CF93DF93CDB7DEB7FB
:1012A0002C970FB6F894DEBF0FBECDBF0E94A926C3
:1012B0000CE61FE0EE24E394F12CEC0EFD1EF80189
:1012C00064817581882777FD8095982F0E94AD55A0
:1012D0002BED3FE049EC50E40E94F6569B01AC0137
:1012E000F80160817181828193810E94A754F70186
:1012F00061937193819391937F0107581F4FF0E1A0
:10130000073D1F07E1F68091190E28E530EA4BE80A
:1013100051E4823009F465C069817A818B819C81B6
:101320000E940B5587FD71C028E530EA4BE851E477
:101330006D817E818F8198850E940B5587FD65C0E8
:101340001092710F1092700F1092EA0F1092E90F25
:1013500010926310109262100BED1FE029EC3FE336
:1013600040E050E0BA0181E090E00E946B1A0BED82
:101370001FE029EC3FE340E050E0BA0182E090E05A
:101380000E946B1A0BED1FE029EC3FE340E050E0B8
:10139000BA0183E090E00E946B1A1092FE0D84EF78
:1013A00091E0A0E0B0E08093FF0D9093000EA09339
:1013B000010EB093020E84EB96E09093040E80939E
:1013C000030E8EEF9DE02C960FB6F894DEBF0FBE95
:1013D000CDBFDF91CF911F910F91FF90EF900C94B3
:1013E000374869817A818B819C810E940B5587FDEA
:1013F0000CC028E530EA4BE851E469857A858B8595
:101400009C850E940B5587FF9BCF0E94B50780915A
:1014100047029091480208951F920F920FB60F92C3
:1014200011248F939F93AF93BF938091510290911A
:101430005202A0915302B09154020196A11DB11D18
:101440008093510290935202A0935302B09354029E
:10145000BF91AF919F918F910F900FBE0F901F90F2
:101460001895089590E1899F900111243093990077
:101470002093980090E1699F9001112430939D0082
:1014800020939C0090E1499F9001112430939B0090
:1014900020939A008093160E6093170E4093180EB7
:1014A00008958091110E9091120E01979093120E53
:1014B0008093110E181619061CF081E08093200FFE
:1014C0004091180E40586091170E60588091160E8A
:1014D00080580C94320A20E1829FC001112490931D
:1014E00099008093980080E1689FB0011124709367
:1014F0009D0060939C0020E1429FA0011124509325
:101500009B0040939A000895CF93DF9380919802B7
:1015100090919902892B59F180919502882339F194
:10152000C0915B02D0915C029E01A9E8B8E80E94DC
:101530008B5B9695879596958795969587954FE0C1
:10154000489F9001499F300D1124CE01821B930BBF
:10155000039780F440912C1160912B1180912A11F6
:101560000E946B0A2196D0935C02C0935B02DF91CC
:10157000CF9108954091180E6091170E8091160E2C
:101580000E946B0AEFCF4091180E6091170E809168
:10159000160E0C946B0A0F93CF93DF9300D01F921B
:1015A000CDB7DEB781E08B8302E09E012F5F3F4F16
:1015B00041E0BE016D5F7F4F8CE10E94E94A0E94CD
:1015C000174B998180E09093140E8093130E8091B5
:1015D000130E9091140E2A81822B9093140E8093F7
:1015E000130E83E08B839E012F5F3F4F41E0BE01CE
:1015F0006D5F7F4F8CE10E94E94A0E94174B9981F1
:1016000080E090931B0F80931A0F80911A0F909196
:101610001B0F2A81822B90931B0F80931A0F85E05A
:101620008B839E012F5F3F4F41E0BE016D5F7F4F77
:101630008CE10E94E94A0E94174B998180E09093C7
:10164000340F8093330F8091330F9091340F2A81A0
:10165000822B9093340F8093330F80E00F900F9084
:101660000F90DF91CF910F910895CF93C82F8823CA
:10167000F1F040E06FEF80E00E94320A2FEF81EE40
:1016800094E0215080409040E1F700C0000040E02D
:1016900060E08FEF0E94320A2FEF81EE94E021503C
:1016A00080409040E1F700C00000C15011F7CF9199
:1016B000089585E00C94350B0F93CF93DF9300D002
:1016C00000D0CDB7DEB78DE08C8301E09E012D5FA9
:1016D0003F4F41E0BE016C5F7F4F8CE10E94E94AC1
:1016E0000E94174B892B09F58B818A3219F084E10E
:1016F0000E94350B8AE2898389E18A8342E0BE0138
:101700006F5F7F4F8CE10E94AD4A0E94174B892B7F
:1017100019F084E10E94350B80E00F900F900F903C
:101720000F90DF91CF910F91089584E10E94350BC6
:10173000DBCF2091110E3091120E121613060CF40D
:10174000089590E0880F991F9093120E8093110EC8
:101750001092200F84E690E0A0E0B0E08093210F8B
:101760009093220FA093230FB093240F81E59AE06A
:101770009093260F8093250F80E29FE00C943748CA
:101780002091110E3091120E121613060CF40895CA
:1017900090E0880F991F9093120E8093110E109273
:1017A000200F4093210F5093220F6093230F7093CB
:1017B000240F81E59AE09093260F8093250F80E215
:1017C0009FE00C9437480E946B0A81E080932C03C1
:1017D00084E690E0A0E0B0E080932D0390932E0388
:1017E000A0932F03B093300383EC9AE090933203DD
:1017F000809331038CE293E00C9437489AE0909305
:10180000770090917C00907C90937C0090917C007C
:10181000906C90937C0090917C00982B90937C002E
:1018200080917A00876C80937A0080917A0086FD9F
:10183000FCCF2091780030917900932F937080E055
:10184000AC01422B9A01C9010895CF93DF9380E840
:101850008093610010926100F89480EF84B98BB19D
:10186000806E8BB980916800816080936800809160
:101870006B00826080936B0080916B00846080932A
:101880006B0080916B00886080936B008FB78068DD
:101890008FBF88E18AB98BB183608BB98FE78DB92F
:1018A0008FE383BB819A89982FEF81EE94E02150DA
:1018B00080409040E1F700C0000082E00E94FE0BF3
:1018C000EC018198829A8A982FEF81EE94E0215062
:1018D00080409040E1F700C0000081E00E94FE0BD4
:1018E0008298C436D10524F4843691050CF453C093
:1018F00082E08093190E82E090E090931D0F809318
:101900001C0F81E090E090931F0F80931E0F3AEA26
:101910003093800029E1209381008FEF9FE0909326
:1019200087008093860030939000209391009093DD
:1019300097008093960010922501109224018091C7
:101940007300826080937300809121018C6080938A
:1019500021018EE390E090932901809328019093D8
:1019600027018093260184B7877F84BF8091600020
:101970008861809360001092600080EC80937C000E
:1019800010927B008FEE80937A000E948D147894E1
:10199000DF91CF91089583E08093190E84E090E069
:1019A00090931D0F80931C0F83E090E090931F0F86
:1019B00080931E0FACCFE82FF0E0EE0FFF1FE65E26
:1019C000FE4E20813181C90108950E94DB0CBC01CB
:1019D00080E090E00E94AB552DEC3CEC4CEC5FE3DA
:1019E0000E94F65620E030E040E85AE30E94F656A6
:1019F000089580E00E94DB0CBC0180E090E00E9432
:101A0000AB552DEC3CEC4CEC5FE30E94F65620E02D
:101A100030E040E85AE30E94F6562EE63BED46EBF6
:101A20005EE30E9412550895CF93DF93CDB7DEB7E2
:101A30002C970FB6F894DEBF0FBECDBF69877A87AB
:101A40008B879C878091510290915202A091530202
:101A5000B091540289839A83AB83BC8329813A81F4
:101A60004B815C8189859A85AB85BC85820F931FEC
:101A7000A41FB51F8D839E83AF83B887000020917C
:101A800051023091520240915302509154028D8183
:101A90009E81AF81B88582179307A407B50778F7B1
:101AA0002C960FB6F894DEBF0FBECDBFDF91CF915D
:101AB000089580916000886180936000809160004B
:101AC0008D6080936000FFCF4F925F926F927F9204
:101AD000AF92BF92CF92DF92EF92FF920F931F933C
:101AE000CF93DF93CDB7DEB76E970FB6F894DEBF16
:101AF0000FBECDBF0E94CB0A6091130E7091140EE1
:101B0000882777FD8095982F0E94AD5520E030E022
:101B100040E858E30E94F6562B013C0160911A0FF1
:101B200070911B0F882777FD8095982F0E94AD55E7
:101B300020E030E040E858E30E94F6566B017C015B
:101B40006091330F7091340F882777FD8095982F1F
:101B50000E94AD5520E030E040E858E30E94F65680
:101B60005B018C01242D352D462D572D642D752DAF
:101B7000862D972D0E94F6562B013C012C2D3D2DD4
:101B80004E2D5F2D6C2D7D2D8E2D9F2D0E94F65696
:101B90009B01AC01C301B2010E94A7546B017C01FF
:101BA0002A2D3B2D402F512F6A2D7B2D802F912FD9
:101BB0000E94F6569B01AC01C701B6010E94A754D2
:101BC0000E9463577B018C018091510290915202D7
:101BD000A0915302B091540240913B0350913C03B9
:101BE00060913D0370913E03841B950BA60BB70BD0
:101BF0008B3F9105A105B10508F0C7C0A0903F0338
:101C0000B0904003C0904103D09042032E2D3F2D51
:101C1000402F512F6A2D7B2D8C2D9D2D0E94A65477
:101C20005B016C0120E030E0A9017B2D9D2D0E941D
:101C30000B5587FD27C12AE939E949E15FE36A2DA0
:101C40007B2D8C2D9D2D0E94F25618160CF06CC029
:101C500010920A0240E06FEF80E00E94E30BBB2489
:101C6000B394B0920B028091980290919902892BC3
:101C700009F0AAC0809131118111A6C08091510252
:101C800090915202A0915302B0915402809332116C
:101C900090933311A0933411B09335118091510278
:101CA00090915202A0915302B09154020E94905D13
:101CB0004090510250905202609053027090540232
:101CC0000E948C5D6C01C301B2010E94AB552B01D7
:101CD0003C01B601882777FD8095982F0E94AD556D
:101CE00020E03EEF4FEF56E40E94125520E030E432
:101CF0004CE954E40E94F6569B01AC01C301B201C9
:101D00000E94A75420E030E04AE753E40E94A75421
:101D10000E947F556093361170933711809338116C
:101D200090933911B09231118E2D9F2DA02FB12F8C
:101D300080933F0390934003A0934103B0934203E9
:101D40008091510290915202A0915302B09154029D
:101D500080933B0390933C03A0933D03B0933E03D9
:101D60006E960FB6F894DEBF0FBECDBFDF91CF9158
:101D70001F910F91FF90EF90DF90CF90BF90AF90A9
:101D80007F906F905F904F9008958E2D9F2DA02F84
:101D9000B12F80933F0390934003A0934103B093EE
:101DA00042038091510290915202A0915302B0914E
:101DB000540280933B0390933C03A0933D03B09364
:101DC0003E035701680122CF809131118111ACCFC0
:101DD0008091510290915202A0915302B09154020D
:101DE00040915702509158026091590270915A02E5
:101DF000841B950BA60BB70B843F9140A105B10541
:101E000008F4AECF83ED89838EE08A831B821C8227
:101E10001D821E8280919802909199029F838091E9
:101E2000980290919902888780912A1189878091E0
:101E30002B118A8780912C118B878091960290912B
:101E400097029C8780919602909197028D8782E1FC
:101E50008E8720E04FEF5FEF6EE0CE0101960E948B
:101E6000B2478091510290915202A0915302B091D9
:101E700054028093570290935802A0935902B09352
:101E80005A0252CF2AE939E949E15FEB6A2D7B2DED
:101E90008C2D9D2D0E940B5587FF46CFD9CECF9319
:101EA000DF93CDB7DEB7AD970FB6F894DEBF0FBEA8
:101EB000CDBF0E9441380E94250C0E94A14A0E9479
:101EC0005C0B882321F08AE00E94350BFCCF0E9436
:101ED000CC040E9491440E94B02C80914C029091BD
:101EE0004D02A0914E02B0914F028A279B270E947B
:101EF000905D0E94CF261F8E8FE090E0A0E0B0E0C2
:101F000088A399A3AAA3BBA386EF9EE19DA38CA35C
:101F1000CE014F960E943748188A84E690E0A0E0F0
:101F2000B0E0898B9A8BAB8BBC8B84E89AE09E8B5C
:101F30008D8BCE0140960E943748198280E091E057
:101F4000A0E0B0E08A839B83AC83BD838CEE97E3F3
:101F50009F838E83CE0101960E9437484FEF60E049
:101F600080E00E94320A0E9469510E94BF480E948C
:101F700069510E94B3420E94234B0E9469510E9402
:101F8000F4440E948D040E9469510E945F2E80914A
:101F90000A02811179C08091490290914A02892BED
:101FA00011F38091470290914802892BE1F28091D0
:101FB000510290915202A0915302B091540240916B
:101FC0000D0E50910E0E60910F0E7091100E841B2D
:101FD000950BA60BB70B81339547A105B10518F2F8
:101FE0000E94320610924A021092490220E030E02C
:101FF0004AEA53E460916602709167028091680238
:10200000909169020E94F65620E030E044EB53E4E0
:102010000E94125560936E0270936F02809370025B
:102020009093710220E030E04AEA53E4609162024A
:102030007091630280916402909165020E94F6564D
:1020400020E030E044EB53E40E94125560936A02B2
:1020500070936B0280936C0290936D0244E050E0A9
:102060006EE672E087E194E00E94B01044E050E038
:102070006AE672E08BE194E00E94B01061EA86E1CA
:1020800094E00E9471106FCF0E94640D84CFCF92B4
:10209000DF92EF92FF926B017C0120E030E0A9011A
:1020A0000E940B5587FD1AC020E030E0A901C7014E
:1020B000B6010E94F256181674F490E88FE350E0CF
:1020C00040E09C01652F742F832F922FFF90EF909B
:1020D000DF90CF90089590E080E0F1CF90E88FEB13
:1020E000EECFE0915D02E11103C0F894E0915D0252
:1020F0007FEF54E144E2F999FECF2AE030E000009E
:1021000021503109E1F792BD81BD70BD5FBBF99AE5
:10211000F999FECF2AE030E0000021503109E1F7C3
:1021200060BD4FBBF99AF999FECF92BD81BDF89A77
:1021300020B56213E0CFE11101C078940895209199
:102140005D02211103C0F89420915D02F999FECF40
:1021500092BD81BDF89A211101C0789480B508958F
:10216000EF92FF920F931F93CF93DF938C01F8941C
:1021700081E080935D02141615066CF4EB017B017F
:10218000E40EF51E6991C8010E9471100F5F1F4F88
:10219000CE15DF05B9F710925D027894DF91CF91EB
:1021A0001F910F91FF90EF900895EF92FF920F9380
:1021B0001F93CF93DF93F89421E020935D021416D0
:1021C000150684F4EB017B01E40EF51E8C01061B61
:1021D000170BC8018C0F9D1F0E949F108993CE156D
:1021E000DF05B9F710925D027894DF91CF911F91CE
:1021F0000F91FF90EF9008951F920F920FB60F92DC
:1022000011240BB60F924F925F926F927F928F9232
:102210009F92AF92BF92CF92DF92EF92FF920F9375
:102220001F932F933F934F935F936F937F938F935E
:102230009F93AF93BF93CF93DF93EF93FF938091DF
:1022400078028F5F80937802833008F45DC010922B
:10225000780240917902E42FF0E08091780090E0DC
:10226000EE0FFF1FE65EFE4E918380838081918199
:1022700050917900352F337020E0822B932B91837E
:1022800080838091490290914A02892B41F080918C
:10229000470290914802892B11F04730C1F14F5FFE
:1022A00040937902483008F088C280917C00807E9B
:1022B00080937C0080917C0090917902892B80939F
:1022C0007C00FF91EF91DF91CF91BF91AF919F91F2
:1022D0008F917F916F915F914F913F912F911F91BE
:1022E0000F91FF90EF90DF90CF90BF90AF909F90B5
:1022F0008F907F906F905F904F900F900BBE0F90DC
:102300000FBE0F901F9018958111DBCFA2CF609167
:10231000261170912711882777FD8095982F0E94AC
:10232000AD552DEC3CEC4CEC5FE30E94F65620E002
:1023300030E040E85AE30E94F65623E333E343E3F8
:102340005FE30E94A6548B01D82FC92F20E030E014
:10235000A901FE01712F8F2F9E2F0E940B5587FD23
:102360002FC22DEC3CEC4CE45EE3FE01602F712F9C
:102370008F2F9E2F0E940B5587FDEDC06091241179
:1023800070912511882777FD8095982F0E94AD5573
:102390002DEC3CEC4CEC5FE30E94F65620E030E084
:1023A00040E85AE30E94F65623E333E343E35FE356
:1023B0000E94A654EB01182F092F20E030E0A9015C
:1023C000F8017D2F8F2F9E2F0E940B5587FD23C272
:1023D0002DEC3CEC4CE45EE3F8016C2F7D2F8F2F4D
:1023E000902F0E940B5587FDB6C0C0916002D0911E
:1023F0006102BE01882777FD8095982F0E94AD5518
:102400002091660230916702409168025091690202
:102410000E94F656F62EE72ED82EC92E6091261170
:10242000709127110091241110912511882777FDB3
:102430008095982F0E94AD552DEC3CEC4CEC5FE361
:102440000E94F65620E030E040E85AE30E94F6563B
:102450004B015C01B801882777FD8095982F0E9479
:10246000AD552DEC3CEC4CEC5FE30E94F65620E0C1
:1024700030E040E85AE30E94F6569B01AC01C501EA
:10248000B4010E94A65420E030E0A9010E940B553F
:1024900087FD08C2609126117091271100912411C7
:1024A00010912511882777FD8095982F0E94AD55B2
:1024B0002DEC3CEC4CEC5FE30E94F65620E030E063
:1024C00040E85AE30E94F6564B015C01B8018827A8
:1024D00077FD8095982F0E94AD552DEC3CEC4CEC8F
:1024E0005FE30E94F65620E030E040E85AE30E94A5
:1024F000F6569B01AC01C501B4010E94A6549B0194
:10250000AC010E94A7542196262F372F482F592F10
:10251000D701F6016B2F7E2D8F2F9C2D0E94A75483
:102520006B017C01BE01882777FD8095982F0E9462
:10253000AD559B01AC01C701B6010E9412556093D5
:102540006602709367028093680290936902D09349
:102550006102C0936002C0911C0FD0911D0FCC0F7F
:10256000DD1FFE01E65EFE4E60817181882777FDEA
:102570008095982F0E94AD552DEC3CEC4CEC5FE320
:102580000E94F65620E030E040E85AE30E94F656FA
:1025900023E333E343E35FE30E94A6547B018C0112
:1025A00020E030E0A9017F2D912F0E940B5587FD7F
:1025B00016C12DEC3CEC4CE45EE36E2D7F2D802F9C
:1025C000912F0E940B5587FDF8C000911E0F1091AE
:1025D0001F0F000F111FF801E65EFE4E6081718132
:1025E000882777FD8095982F0E94AD552DEC3CEC07
:1025F0004CEC5FE30E94F65620E030E040E85AE3FE
:102600000E94F65623E333E343E35FE30E94A654BC
:10261000F62EE72ED82EC92E20E030E0A901D701F2
:10262000F6016B2F7A2F8F2F9E2F0E940B5587FD5F
:10263000E3C02DEC3CEC4CE45EE3D701F6016B2FDC
:102640007E2D8F2F9C2D0E940B5587FDB6C0E090EC
:102650005E02F0905F02B701882777FD8095982F82
:102660000E94AD5520916202309163024091640254
:10267000509165020E94F656B62EA72E982E892EEE
:10268000C65EDE4E68817981065E1E4EF801C0800E
:10269000D180882777FD8095982F0E94AD552DEC2D
:1026A0003CEC4CEC5FE30E94F65620E030E040E862
:1026B0005AE30E94F6562B013C01B601882777FDAC
:1026C0008095982F0E94AD552DEC3CEC4CEC5FE3CF
:1026D0000E94F65620E030E040E85AE30E94F656A9
:1026E0009B01AC01C301B2010E94A65420E030E07E
:1026F000A9010E940B5587FD9DC068817981F80171
:10270000C081D181882777FD8095982F0E94AD5593
:102710002DEC3CEC4CEC5FE30E94F65620E030E000
:1027200040E85AE30E94F6562B013C01BE0188277F
:1027300077FD8095982F0E94AD552DEC3CEC4CEC2C
:102740005FE30E94F65620E030E040E85AE30E9442
:10275000F6569B01AC01C301B2010E94A6549B0135
:10276000AC010E94A754FFEFEF1AFF0A262F372F64
:10277000482F592FD501F4016B2F7A2D8F2F982DCB
:102780000E94A7544B015C01B701882777FD809513
:10279000982F0E94AD559B01AC01C501B4010E9468
:1027A0001255609362027093630280936402909367
:1027B0006502F0925F02E0925E021092790275CD9E
:1027C0002DEC3CEC4CE45EEBFE01602F712F8F2F63
:1027D0009E2F0E94F25618160CF4BDCECFCD2DECD4
:1027E0003CEC4CE45EEB6E2D7F2D802F912F0E94F0
:1027F000F256181614F3E9CE2DEC3CEC4CE45EEBEB
:10280000D701F6016B2F7E2D8F2F9C2D0E94F25643
:1028100018169CF21CCF2DEC3CEC4CE45EEBF8015E
:102820006C2F7D2F8F2F902F0E94F25618160CF4CC
:1028300092CEDBCD68817981F801C081D181882772
:1028400077FD8095982F0E94AD552DEC3CEC4CEC1B
:102850005FE30E94F65620E030E040E85AE30E9431
:10286000F6562B013C01BE01882777FD8095982FF5
:102870000E94AD552DEC3CEC4CEC5FE30E94F6560B
:1028800020E030E040E85AE30E94F6569B01AC019C
:10289000C301B2010E94A65490589B01AC010E9452
:1028A000A75461CF609126117091271100912411D6
:1028B00010912511882777FD8095982F0E94AD559E
:1028C0002DEC3CEC4CEC5FE30E94F65620E030E04F
:1028D00040E85AE30E94F6564B015C01B801882794
:1028E00077FD8095982F0E94AD552DEC3CEC4CEC7B
:1028F0005FE30E94F65620E030E040E85AE30E9491
:10290000F6569B01AC01C501B4010E94A654905833
:102910009B01AC010E94A754F6CD8F929F92AF927B
:10292000BF92CF92DF92EF92FF920F931F93CF93BC
:10293000DF9384EE91E0E6E3FFE0DF019C011D926E
:1029400021503040E1F720E030E009E741E2842EF9
:1029500041E3942E48E9A42E44E4B42E50E5C52E5C
:1029600057E7D52E56EDE52E5DE3F52E4FEF5FEFE1
:10297000BA01CFEFDFEF10E883EF96E6AFEDBFE3EC
:10298000029FF001039FF00D1124EA5CF04F1082CA
:10299000118212821382148285829682A782B08667
:1029A000C186D286E386F486158616861786108A37
:1029B000128A118A148A138A158A168A178A108E27
:1029C000118E138E128E448F558F668F778FD1A301
:1029D000C0A312A386A397A3A0A7B1A712AA13AA64
:1029E00014AA15AA13AE12AEEF59FF4F108211822E
:1029F000128213822F5F3F4F2330310509F686E1A3
:102A000094E00E949F10813A69F0DF91CF911F916D
:102A10000F91FF90EF90DF90CF90BF90AF909F907D
:102A20008F90089544E050E06EE672E087E194E014
:102A30000E94D51044E050E06AE672E08BE194E039
:102A4000DF91CF911F910F91FF90EF90DF90CF908A
:102A5000BF90AF909F908F900C94D5100F931F93C1
:102A6000CF93DF932BED3FE049EC50E40E94EF550C
:102A70008B01D82FC92F2BED3FE049E450E4FE0134
:102A8000712F8F2F9E2F0E94F256181674F42BED83
:102A90003FE049EC50E4FE01602F712F8F2F9E2FF5
:102AA0000E94A6548B01D82FC92F2BED3FE049E49B
:102AB00050ECFE01602F712F8F2F9C2F0E940B5521
:102AC00087FF0EC02BED3FE049EC50E4FE01602F84
:102AD000712F8F2F9C2F0E94A7548B01D82FC92FA5
:102AE0009E01602F712F832F9C2FDF91CF911F911B
:102AF0000F9108952F923F924F925F926F927F9223
:102B00008F929F92AF92BF92CF92DF92EF92FF92FD
:102B10000F931F93CF93DF93CDB7DEB728970FB6F0
:102B2000F894DEBF0FBECDBF9C838B8380918C0257
:102B300090918D02892B09F40DC18B819C8181308C
:102B4000910509F4A6C00CF481C004970CF07EC076
:102B500080911C0F0E94E50C4B015C0180911E0FBF
:102B60000E94E50C2B013C01C0906A02D0906B02E0
:102B7000E0906C02F0906D0220E030E040E05FE316
:102B8000C701B6010E94F65668877F831C01762F25
:102B90006F81272F362F422D532DC501B4010E947E
:102BA000A65469837A838C014B015C0180918E026B
:102BB00090918F028130910509F491C1029709F437
:102BC00067C220E030E04AEA53E4C501B4010E9444
:102BD000F656A70196010E941255382F292F862FED
:102BE000972FA32FB22FBC01CD0190582BED3FE0C2
:102BF00049E450E40E94F65620E030E044E353E418
:102C00000E9412552091EB0F3091EC0F4091ED0F87
:102C10005091EE0F0E94A75428960FB6F894DEBF8D
:102C20000FBECDBFDF91CF911F910F91FF90EF901D
:102C3000DF90CF90BF90AF909F908F907F906F90DC
:102C40005F904F903F902F900C942E150E94590B3F
:102C500050E040E030E82FEB652F742F832F922F48
:102C600028960FB6F894DEBF0FBECDBFDF91CF918F
:102C70001F910F91FF90EF90DF90CF90BF90AF909A
:102C80009F908F907F906F905F904F903F902F908C
:102C9000089586E00E94E50C4B015C0185E00E94EE
:102CA000E50C2B013C01C0906E02D0906F02E090C9
:102CB0007002F090710220E030E040E05FE3C70175
:102CC000B6010E94F65668877F831C01762F6F81BC
:102CD000272F362F422D532DC501B4010E94A65433
:102CE00069837A838C014B015C0180918C02909105
:102CF0008D028130910509F455C1029709F4D9C1BB
:102D000020E030E04AEA53E4C501B4010E94F656DF
:102D1000A70196010E941255382F292F862F972F31
:102D2000A32FB22FBC01CD0190582BED3FE049E419
:102D300050E40E94F65620E030E044E353E40E9461
:102D400012552091720F3091730F4091740F509172
:102D5000750F60CF86E00E94E50C6B017C0120E0DE
:102D600030E040E05FE360916E0270916F0280910D
:102D70007002909171020E94F6569B01AC01C7014E
:102D8000B6010E94A6541B018C012B013C0185E079
:102D90000E94E50C6B017C0120E030E040E05FE345
:102DA00060916E0270916F02809170029091710239
:102DB0000E94F6569B01AC01C701B6010E94A654C1
:102DC000862E972EA82EB92E20E030E0A901B10161
:102DD000C8010E940B5587FD56C120E030E0A901D3
:102DE000C501B4010E940B5587FD48C1A50194019E
:102DF000C301B2010E940B5587FD63C082E090E0E1
:102E000090938D0280938C0280911C0F0E94E50CA0
:102E10006B017C0120E030E040E05FE360916A02FA
:102E200070916B0280916C0290916D020E94F65637
:102E30009B01AC01C701B6010E94A6541B018C0185
:102E40002B013C0180911E0F0E94E50C6B017C015F
:102E500020E030E040E05FE360916A0270916B0235
:102E600080916C0290916D020E94F6569B01AC011C
:102E7000C701B6010E94A654862E972EA82EB92E01
:102E800020E030E0A901B101C8010E940B5587FD87
:102E9000F0C020E030E0A901C501B4010E940B554B
:102EA00087FDE2C0A5019401C301B2010E940B5548
:102EB00087FF0EC081E090E090938F0280938E0296
:102EC0003CCE81E090E090938D0280938C029CCF69
:102ED00082E090E090938F0280938E022ECE20E0CD
:102EE00030E0A901C8010E940B5587FD29C18981E5
:102EF0009A81D8018B839C83AD83BE8326E636E618
:102F000046E65FE3B885AF816B2F7A2F822D932D34
:102F10000E94F65669837A83182F092F762F6A81CB
:102F2000C801272F362F492F582F6B817C818D8127
:102F30009E810E94F25618160CF043CE82E090E07B
:102F400090938F0280938E0278856F81272F362F82
:102F5000422D532DC301B2010E94A6541B018F8341
:102F60009B832B013C0120E030E0A9010E940B551E
:102F700087FDDAC0C101AF81BB81BC01CD01B98140
:102F8000AA81F8012B2F3A2F4F2F502F0E94F25673
:102F900018160CF0B2C081E090E090938F028093FD
:102FA0008E020FCE20E030E0A901C8010E940B552F
:102FB00087FDBEC089819A81D8018B839C83AD83B4
:102FC000BE8326E636E646E65FE3B885AF816B2F23
:102FD0007A2F822D932D0E94F65669837A83182FBB
:102FE000092F762F6A81C801272F362F492F582F96
:102FF0006B817C818D819E810E94F25618160CF0A7
:103000007FCE82E090E090938D0280938C02788551
:103010006F81272F362F422D532DC301B2010E94FD
:10302000A6541B018F839B832B013C0120E030E0E1
:10303000A9010E940B5587FD73C0C101AF81BB81FF
:10304000BC01CD01B981AA81F8012B2F3A2F4F2F56
:10305000502F0E94F2561816ECF581E090E0909304
:103060008D0280938C024CCEB7FAB094B7F8B0942E
:1030700019CF77FA709477F870940BCFB7FAB094B1
:10308000B7F8B094B3CE77FA709477F87094A5CE71
:1030900026E636E646E65FE3B885AF816B2F7A2FEA
:1030A000822D932D0E94F65669837A83182F092F5B
:1030B0004BCF26E636E646E65FE3B885AF816B2F59
:1030C0007A2F822D932D0E94F65669837A83182FCA
:1030D000092F9DCF20E030E04AEA53E4C301B2015A
:1030E0000E94F656A70196010E94125520E030E09A
:1030F00044E353E40E94A7540FCE20E030E04AEAB4
:1031000053E4C301B2010E94F656A70196010E9442
:10311000125520E030E044E353E40E94A7545DCD13
:10312000C301B20190588ECFC301B201905827CF8E
:10313000D501C401B0588B839C83AD83BE8341CF3E
:10314000D501C401B0588B839C83AD83BE83D6CE9A
:103150002091190E2230F9F0233019F1019729E757
:10316000289FF001299FF00D1124EA5CF04F82E0C6
:1031700080834183528363837483128A118A8DE42E
:1031800091E0A0E0B0E0848F958FA68FB78F20E00C
:1031900030E0C90108958230910501F72FEF3FEF2C
:1031A000F8CF83309105D1F6F9CF2F923F924F920D
:1031B0005F926F927F928F929F92AF92BF92CF92C7
:1031C000DF92EF92FF920F931F93CF93DF93CDB7D0
:1031D000DEB72C970FB6F894DEBF0FBECDBF5C01F3
:1031E0002A013B01680179011C0121E0221A310802
:1031F00089E7829DF001839DF00D1124EA5CF04F78
:103200008CE29CEEAAECB3E485839683A783B08717
:1032100011861286138614861091190E123009F445
:1032200006C1133009F40BC120E030E0A901C70149
:10323000B6010E940B55882309F4CEC089E7829D10
:10324000D001839DB00D1124AA5CB04FBC87AB8721
:10325000D6968D919D910D90BC91A02D8A839B83D4
:10326000AC83BD839C01AD01C301B2010E94A65491
:103270006983872E982E092F20E030E0A9010E9453
:103280000B5587FDACC023EC38EB42E35EE3B9811C
:103290006B2F782D892D902F0E940B5587FDADC087
:1032A00020E030E0A901C701B6010E940B5587FD5F
:1032B000D6C0A7019601B9816B2F782D892D902F4B
:1032C0000E94125520E030E04AE754E40E94F6568E
:1032D0006E83A72EB82E192F20E030E0A901B98106
:1032E0006B2F782D892D902F0E94F25618160CF016
:1032F000E7C0AB85BC85D296CD92DD92ED92FC9273
:10330000D59789E7829DF001839DF00D1124EA5C39
:10331000F04F82A993A9A4A9B5A986A797A7A0ABA6
:10332000B1AB8A819B81AC81BD81EB85FC858183BA
:103330009283A383B483158616861786108A20E0AD
:1033400030E040E751E4BE816B2F7A2D8B2D912F19
:103350000E9412555B018C016B017C0120E030E082
:10336000A9010E940B5587FDA5C0B501C8010E94A7
:103370007A55CB01AA2797FDA095BA2FEB85FC853E
:10338000848F958FA68FB78F128A118A468A578AA3
:10339000608E718E81E090E0938F828F83E08083D6
:1033A00020E030E0C9012C960FB6F894DEBF0FBEC6
:1033B000CDBFDF91CF911F910F91FF90EF90DF90E4
:1033C000CF90BF90AF909F908F907F906F905F90C5
:1033D0004F903F902F90089520E030E0E3CF23EC12
:1033E00038EB42E35EEBB9816B2F782D892D902F5E
:1033F0000E94F25618160CF053CF123059F11330C8
:1034000021F182E0AB85BC858C93FD014182528223
:1034100063827482128A118A8DE491E0A0E0B0E0A8
:10342000848F958FA68FB78F20E030E0BBCF32E03E
:10343000A316B10409F0F8CE2FEF3FEFB3CF83E02E
:10344000A816B10409F0F0CEF7CFE3E0AE16B10450
:10345000C1F6F2CFB2E0AB16B10499F6EDCFD701C9
:10346000C601B0588F839887A987BA879C01AD01A0
:10347000B9816B2F782D892D902F0E94125520E055
:1034800030E04AE754E40E94F6566E83A72EB82E29
:10349000192F20E030E0A901B9816B2F782D892DFB
:1034A000902F0E94F25618167CF4CF80D884E984BD
:1034B000FA841FCFC701B60190580E947A5559CFA0
:1034C000F7FAF094F7F8F094EB85FC85C2AAD3AA3A
:1034D000E4AAF5AA16CF2F923F924F925F926F9275
:1034E0007F928F929F92AF92BF92CF92DF92EF9294
:1034F000FF920F931F93CF93DF93CDB7DEB72C9737
:103500000FB6F894DEBF0FBECDBF5C012A013B01B0
:10351000680179011C0121E0221A310889E7829DA6
:10352000F001839DF00D1124EA5CF04F8CE29CEEDB
:10353000AAECB3E485839683A783B08711861286AD
:10354000138614861091190E123009F41EC113301F
:1035500009F423C120E030E0A901C701B6010E94AF
:103560000B55882309F4E6C089E7829DD001839D2D
:10357000B00D1124AA5CB04FBC87AB87D6968D9155
:103580009D910D90BC91A02D8A839B83AC83BD83BC
:10359000EB85FC8562AD73AD882777FD8095982F0C
:1035A0000E94AD552BED3FE049EC50E40E94F656E9
:1035B0009B01AC016A817B818C819D810E94A75413
:1035C0009B01AC01C301B2010E94A6546983872EFE
:1035D000982E092F20E030E0A9010E940B5587FDAD
:1035E000ACC023EC38EB42E35EE3B9816B2F782D5E
:1035F000892D902F0E940B5587FDADC020E030E053
:10360000A901C701B6010E940B5587FDD6C0A701CD
:103610009601B9816B2F782D892D902F0E9412551C
:1036200020E030E04AE754E40E94F6566E83A72E6D
:10363000B82E192F20E030E0A901B9816B2F782D29
:10364000892D902F0E94F25618160CF0E7C0AB851A
:10365000BC85D296CD92DD92ED92FC92D59789E70A
:10366000829DF001839DF00D1124EA5CF04F82A948
:1036700093A9A4A9B5A986A797A7A0ABB1AB8A8146
:103680009B81AC81BD81EB85FC8581839283A38383
:10369000B483158616861786108A20E030E040E74E
:1036A00051E4BE816B2F7A2D8B2D912F0E941255E4
:1036B0005B018C016B017C0120E030E0A9010E94DC
:1036C0000B5587FDA5C0B501C8010E947A55CB01F5
:1036D000AA2797FDA095BA2FEB85FC85848F958F3F
:1036E000A68FB78F128A118A468A578A608E718E8A
:1036F00081E090E0938F828F83E0808320E030E050
:10370000C9012C960FB6F894DEBF0FBECDBFDF9176
:10371000CF911F910F91FF90EF90DF90CF90BF90CE
:10372000AF909F908F907F906F905F904F903F9061
:103730002F90089520E030E0E3CF23EC38EB42E314
:103740005EEBB9816B2F782D892D902F0E94F25658
:1037500018160CF053CF123059F1133021F182E0DA
:10376000AB85BC858C93FD01418252826382748259
:10377000128A118A8DE491E0A0E0B0E0848F958FE9
:10378000A68FB78F20E030E0BBCF32E0A316B104A4
:1037900009F0E0CE2FEF3FEFB3CF83E0A816B104DE
:1037A00009F0D8CEF7CF23E0A216B104C1F6F2CFCC
:1037B000F2E0AF16B10499F6EDCFD701C601B058CB
:1037C0008F839887A987BA879C01AD01B9816B2F38
:1037D000782D892D902F0E94125520E030E04AE785
:1037E00054E40E94F6566E83A72EB82E192F20E0BF
:1037F00030E0A901B9816B2F782D892D902F0E947F
:10380000F25618167CF4CF80D884E984FA841FCF4E
:10381000C701B60190580E947A5559CFF7FAF09433
:10382000F7F8F094EB85FC85C2AAD3AAE4AAF5AA1E
:1038300016CF2F923F924F925F926F927F928F920C
:103840009F92AF92BF92CF92DF92EF92FF920F932F
:103850001F93CF93DF93CDB7DEB72C970FB6F894B5
:10386000DEBF0FBECDBF5C0149835A836B837C836F
:10387000280139014C0181E0881A910889E7889D67
:10388000F001899DF00D1124EA5CF04F8CE29CEE72
:10389000AAECB3E485839683A783B087118612864A
:1038A000138614861091190E123009F4F5C01330E6
:1038B00009F4FAC089E7889D1001899D300C112414
:1038C000E6E3FFE02E0E3F1ED101D6968D919D912D
:1038D0000D90BC91A02D8D839E83AF83B8879C01F2
:1038E000AD0169817A818B819C810E94A6540E94DE
:1038F0002E156B017C0120E030E0A9010E940B55E0
:1039000087FDA0C023EC38EB42E35EE3C701B601BC
:103910000E940B5587FDA1C020E030E0A901C30142
:10392000B2010E940B5587FDC5C0A3019201C701DA
:10393000B6010E94125520E030E04AE754E40E94AC
:10394000F656062FA72EB82E192F20E030E0A90139
:10395000C701B6010E94F25618160CF0DDC0D10165
:10396000D2964D925D926D927C92D59789E7889D13
:10397000F001899DF00D1124EA5CF04F82A993A912
:10398000A4A9B5A986A797A7A0ABB1AB8D819E814D
:10399000AF81B885F10181839283A383B4831586B7
:1039A00016861786108A20E030E040E751E4602F49
:1039B0007A2D8B2D912F0E9412555B018C016B018A
:1039C0007C0120E030E0A9010E940B5587FD9DC0DD
:1039D000B501C8010E947A55CB01AA2797FDA09591
:1039E000BA2FF101848F958FA68FB78F128A118A13
:1039F00089819A81AB81BC81868B978BA08FB18F97
:103A000081E090E0938F828F83E0808320E030E03C
:103A1000C9012C960FB6F894DEBF0FBECDBFDF9163
:103A2000CF911F910F91FF90EF90DF90CF90BF90BB
:103A3000AF909F908F907F906F905F904F903F904E
:103A40002F90089523EC38EB42E35EEBC701B601FB
:103A50000E94F25618160CF05FCF123009F44FC0D6
:103A6000133009F463C082E0D1018C9389819A817B
:103A7000AB81BC81F10181839283A383B483128AD9
:103A8000118A8DE491E0A0E0B0E0848F958FA68F3D
:103A9000B78F20E030E0BCCF92E0A916B10409F066
:103AA00009CF2FEF3FEFB4CFA3E0AA16B10409F07E
:103AB00001CFF7CFD301C201B05889879A87AB876E
:103AC000BC879C01AD01C701B6010E94125520E0E0
:103AD00030E04AE754E40E94F656062FA72EB82E8F
:103AE000192F20E030E0A901C701B6010E94F2566B
:103AF0001816B4F449845A846B847C8430CFB2E0C5
:103B0000AB16B10409F0AFCFCCCFC701B6019058C6
:103B10000E947A55CB0161CF77FA709477F8709450
:103B2000F10142AA53AA64AA75AA20CFE3E0AE1617
:103B3000B10409F098CFB5CF2091190E223049F188
:103B4000233091F1019729E7289FF001299FF00D7B
:103B50001124EA5CF04F2081223001F1233021F062
:103B6000213011F080E0089529E7289FF001299F76
:103B7000F00D1124EA5CF04F20E030E0A90162A9C9
:103B800073A984A995A90E94F25618168CF481E0B5
:103B9000089582309105B1F68FEF08958189928959
:103BA000892BA9F383E008958330910559F6F4CF6A
:103BB00082E008956235A9F0633581F0663459F0EA
:103BC000A098A19820E1829FC001112490938900C0
:103BD000809388000895A09AA198F4CFA09AA19A02
:103BE000F1CFA098A19AEECF6235A9F0633581F0AC
:103BF000663459F0A298A59820E1829FC001112453
:103C000090938B0080938A000895A29AA598F4CF90
:103C1000A29AA59AF1CFA298A59AEECF0F931F93DF
:103C20008A019B0177FD28C0F8010F3F110519F0AB
:103C300010F0EFEFF0E08130910591F074F004970F
:103C400064F477FD33C0452B462B472BE9F066E43F
:103C50008E2F1F910F910C94F41D1F910F910895B9
:103C600077FD1EC0452B462B472BA1F066E48E2F17
:103C70001F910F910C94DA1D002711279801041B46
:103C8000150B260B370BD0CF6EE48E2F1F910F91A3
:103C90000C94F41D6EE48E2F1F910F910C94DA1D7D
:103CA00062E58E2F1F910F910C94DA1D62E58E2F25
:103CB0001F910F910C94F41DCF93DF939C01215021
:103CC000310949E7429FE001439FD00D1124CA5CAE
:103CD000D04F1EA61FA618AA19AA4D89413061F11E
:103CE0004230E1F0442309F471C0433011F54881BA
:103CF000423009F463C0433009F470C049E7429F81
:103D0000F001439FF00D1124EA5CF04F46A957A93A
:103D100060AD71ADDF91CF910C94A81820E030E038
:103D2000A9016EA17FA188A599A50E940B558111BB
:103D30002AC0DF91CF91089520E030E0A9016EA163
:103D40007FA188A599A50E940B55882391F383E054
:103D500088838FEF9FEFDC018C8F9D8FAE8FBF8F9D
:103D60008EA99FA9A8ADB9AD89839A83AB83BC8383
:103D70008EA19FA1A8A5B9A58AAB9BABACABBDABEF
:103D8000DF91CF91089583E088838FEF9FEFDC016F
:103D90008C8F9D8FAE8FBF8F8EA99FA9A8ADB9AD17
:103DA00089839A83AB83BC838EA19FA1A8A5B9A563
:103DB000B0588AAB9BABACABBDABBBCF49895A8982
:103DC000452B09F49BCF1C8A1B8AB3CF188240E095
:103DD00050E0BA01DF91CF910C940E1E49815A81B7
:103DE0006B817C81DF91CF910C94A8182F923F9228
:103DF0004F925F926F927F928F929F92AF92BF92FB
:103E0000CF92DF92EF92FF920F931F93CF93DF93A6
:103E1000CDB7DEB7AC970FB6F894DEBF0FBECDBFFF
:103E200088E69FE09E838D8376E3472E7FE0572EC2
:103E3000ECE76E2EE2E07E2EA8E5BFE0B88BAF8700
:103E4000E6E7FFE0F887EF83FCE62F2EFFE03F2E4A
:103E500086E59FE09E878D87ABE4BFE0BC87AB879C
:103E6000E3EAFFE0FC8BEB8B8BE99FE09E8B8D8B75
:103E7000A1E8BFE0BA87A987E4E6FFE0FA8BE98B07
:103E800080E79FE09C838B83A2E0B0E0BA83A983A4
:103E9000812C912C830138A62FA212012401BFEF9F
:103EA0004B1A5B0A0E9469518091190E823009F405
:103EB000E9C1D1011596CD90DD90ED90FC90189759
:103EC00021E231E348E954E4C701B6010E940B55F1
:103ED00087FF0DC02FE33EEC42E451E4C701B60179
:103EE0000E94A754F1016583768387839087D1016F
:103EF0001996CD90DD90ED90FC901C9720E537E76A
:103F000046ED5DE3C701B6010E940B5587FF0DC06A
:103F10002FE132E449E85AE3C701B6010E94A754F1
:103F2000F1016187728783879487C2010E947A15A5
:103F30003B015C01862F972DAA2DBB2DEFA1F8A583
:103F400080839183A283B383188F0F8B8F011DC051
:103F500080917A0290917B020B977CF5C2010E94BE
:103F60007A153B015C01862F972DAA2DBB2DF801F8
:103F700080839183A283B38380917A0290917B02A4
:103F8000019690937B0280937A02AF89B88DCD9091
:103F9000DD90ED90FC90A7019601662D772D8A2D7E
:103FA0009B2D0E94A6540E942E1523EC38EB42E371
:103FB0005EE30E94F25618165CF2C8010F89188D54
:103FC00098A78FA310927B0210927A0220E030E033
:103FD00040E250EC662D772D8A2D9B2D0E940B55CB
:103FE00087FF0EC120E030E040E250E4C701B60197
:103FF0000E94F25618160CF003C1EB81FC818081FF
:104000009181019691838083AFA1B8A56C901196A0
:104010007C9011971296AC9012971396BC90862DB7
:10402000972DAA2DBB2DF80180839183A283B383A2
:10403000D1018C91833009F459C308F0FEC081305E
:1040400009F43CC308F067C0F101848D958DA68DFD
:10405000B78D0097A105B10509F4A6C40CF4F4C00E
:104060000197A109B109F101848F958FA68FB78FB0
:10407000E981FA81349709F4ECC0E981FA8131963B
:10408000FA83E9838D819E8187589F4F9E838D831C
:1040900099E7290E311C0C5F1F4FAF85B889A758CF
:1040A000BF4FB88BAF87EF81F885E758FF4FF88790
:1040B000EF838FA198A587589F4F98A78FA3AD85B1
:1040C000BE85A758BF4FBE87AD87EB85FC85E758F7
:1040D000FF4FFC87EB878B899C8987589F4F9C8B70
:1040E0008B8BAD89BE89A758BF4FBE8BAD8BE98541
:1040F000FA85E758FF4FFA87E98789899A898758AF
:104100009F4F9A8B898BAB81BC81A758BF4FBC83D3
:10411000AB834201C3CEF101848D958DA68DB78D01
:104120000097A105B10509F493C19CF00197A1097D
:10413000B109F101848F958FA68FB78FAFA1B8A574
:104140006C9011967C9011971296AC9012971396E2
:10415000BC90262D372D4A2D5B2DF1016181728196
:10416000838194810E94A6540E942E156B017C01CC
:1041700020E030E0A9010E940B5587FDEBC323EC42
:1041800038EB42EB5DE3C701B6010E940B5587FD9A
:10419000ECC3D10151968D919C915297892B09F4D2
:1041A00065C120E030E0A901C701B6010E940B55AE
:1041B00087FDDEC4C701B6012091740230917502FB
:1041C00040917602509177020E94F25618160CF038
:1041D0004DC1EF81F88520812F5F208330E08091F1
:1041E0007202909173028217930708F042C1D101C5
:1041F0001C9240E050E0BA01C2010E940E1E24C091
:1042000020E030E040E250E4662D772D8A2D9B2D92
:104210000E94F25618160CF002CF20E030E040E287
:1042200050ECC701B6010E940B5587FFF8CEEB8119
:10423000FC81808191810197E5CE853009F482C1AE
:1042400038F1863009F453C1E981FA81349709F0D5
:1042500014CFAC960FB6F894DEBF0FBECDBFDF9182
:10426000CF911F910F91FF90EF90DF90CF90BF9073
:10427000AF909F908F907F906F905F904F903F9006
:104280002F900895E2E04E16510409F012CEF5CEBB
:1042900060915102709152028091530290915402A8
:1042A0000E94AB5520E030E04AE754E40E941255EA
:1042B0006F8B7B8F8F8F98A3F101EF5BFF4F608136
:1042C000772767FD7095872F972F0E94AD5520E0C7
:1042D00030E040E05CE30E94F65620E030E040EA47
:1042E00050E40E94F65620E030E040E05FE30E9498
:1042F000F6567B01D82EC92EF9E7F89D3001F99DBD
:10430000700C11248DE79FE0680E791EAA24A394F7
:10431000B12C3CA22BA21EA30DA35AA649A647016D
:104320007CA66BA6B501882777FD8095982F0E9403
:10433000AD552BED3FE049EC50E40E94F656BF89A5
:10434000AB8DEF8D18A12B2F3A2F4E2F512F0E949E
:10435000F65620E030E040E251E40E9412557B0125
:104360008C017F2D802F912F0E9459571B012C010A
:10437000F30135976081772767FD7095872F972F19
:104380000E94AD5520E030E040E05CE30E94F6562C
:1043900020E030E040EA50E40E94F656A20191018C
:1043A0000E94F656F601282D392D4F2F5C2D0E94C4
:1043B000A7541B014C019FEF691A790A6E2D7F2DBE
:1043C000802F912F0E940F556B017C01ABA5BCA5DE
:1043D0006C91772767FD7095872F972F0E94AD55B9
:1043E00020E030E040E05CE30E94F65620E030E060
:1043F00040EA50E40E94F656A70196010E94F65644
:10440000222D332D482D592D0E94A7544B01D82E13
:10441000C92EBFEFAB1ABB0AE5E0AE16B10409F036
:104420007FCF2BA03CA00DA11EA149A45AA47B01C3
:104430009601862F9F2DA32FB22FF10181839283A6
:10444000A383B483128A118A8FEF9FEFDC0172CEAF
:1044500081899289892B09F49FC28FEF9FEFDC013C
:10446000F101848F958FA68FB78FEECEEF81F885FF
:104470001082D10115962D913D914D915C91189727
:10448000C701B6010E94F6564B015C01F10125857A
:1044900036854785508961857285838594850E941C
:1044A000F6569B01AC01C501B4010E94A7540E94BD
:1044B0007A55AB01BC01C2010E940E1E2FE832ECFE
:1044C00045E75CE3C701B6010E94F6569B01AC01CB
:1044D000D1011D966D917D918D919C9150970E9477
:1044E000A754F101658776878787908BADCEA98524
:1044F000BA852C91213009F469C2223009F40BC22B
:104500002111A2CE8091510290915202A0915302AA
:10451000B0915402EB89FC894081518162817381A1
:1045200084179507A607B70708F4AAC3F101E45B4F
:10453000FF4F8081882309F416C3E2E0A985BA857C
:10454000EC9382CEF101848D958DA68DB78D009769
:10455000A105B10509F4D5C1181619061A061B06DE
:1045600044F40197A109B109F101848F958FA68FB9
:10457000B78F2FE832EC45E75CE3AD81BE816D91EA
:104580007D918D919C910E94F656F101218132819D
:10459000438154810E94A754C62ED72EE82EF92EAF
:1045A000D1011196CD92DD92ED92FC921497EFA17C
:1045B000F8A520813181428153810E94A6540E9436
:1045C0002E156B017C01D10115962D913D914D91D8
:1045D0005C9118970E94F6564B015C01F10125850C
:1045E00036854785508961857285838594850E94CB
:1045F000F6569B01AC01C501B4010E94A7540E946C
:104600007A55AB01BC01C2010E940E1E2FE832ECAC
:1046100045E75CE3C701B6010E94F6569B01AC0179
:10462000D1011D966D917D918D919C9150970E9425
:10463000A754F101658776878787908B2FE832EC46
:1046400045E75CE362A573A584A595A50E94F6568F
:10465000AD81BE812D913D914D915C910E94A754F9
:104660006B017C0122E93AE046E850E47D2D9F2D64
:104670000E94F25618160CF439C18C2D9D2DAE2DCA
:10468000BF2DED81FE8180839183A283B38322E9D4
:104690003AE046E850EC6C2D7D2D8E2D9F2D0E942A
:1046A0000B5587FFD1CD82E99AE0A6E8B0ECED8109
:1046B000FE8180839183A283B383C6CDAB85BC8505
:1046C0008C91882309F40FC1813009F442C2EF852F
:1046D000F889408150E0519541955109662757FD71
:1046E0006095762FC2010E940E1EAECDF101848D21
:1046F000958DA68DB78D0097A105B10509F4B5C0BC
:1047000044F00197A109B109F101848F958FA68F1B
:10471000B78FF101EF59FF4F80809180A280B38065
:1047200020E030E0A901C501B4010E940B558823A7
:1047300009F4E1C1A989BA898D919D910D90BC912F
:10474000A02D8F8B988FA98FBA8F20E030E0A90120
:10475000BC01CD010E940B5587FDF1C28F89988D58
:10476000A98DBA8D8B8F9C8FAD8FBE8FAD81BE8191
:10477000CD90DD90ED90FC9020E030E0A901C701E4
:10478000B6010E940B55A701960187FDD6C26B8D1D
:104790007C8D8D8D9E8D0E94F25618160CF046C2AF
:1047A000E989FA89C082D182E282F3822FE832EC71
:1047B00045E75CE3C701B6010E94F656F10121818D
:1047C0003281438154810E94A754C62ED72EE82EF1
:1047D000F92ED1011196CD92DD92ED92FC921497B3
:1047E000AFA1B8A52D913D914D915C910E94A65429
:1047F0000E942E156B017C0120E030E0A9010E948F
:104800000B554601570187FD9FC16091740270915D
:10481000750280917602909177029B01AC010E9413
:10482000A7549B01AC01C501B4010E94F256EF816F
:10483000F88518160CF086C120812F5F208330E0A8
:1048400080917202909173028217930708F0FCCC5A
:10485000D1011C925B961C921E925A9740E050E048
:10486000BA01C2010E940E1EEFCC81E090E0928B53
:10487000818BD101158616861786108AED85FE85F7
:1048800080819181892B09F455C1E2E0D101EC933B
:104890005A968D919C915B97892B69F056968D91D4
:1048A0009D910D90BC91A02DF10181839283A383F2
:1048B000B483138E128EEFEFFFEFAD85BE85ED93BF
:1048C000FC93D10153968D919C915497892B09F4B7
:1048D000C4CD82E490E0A0E0B0E0F101848F958F38
:1048E000A68FB78FB1CCF1011082AECC82E99AE0ED
:1048F000A6E8B0E4ED81FE8180839183A283B38337
:10490000A3CC8FEF9FEFDC01848F958FA68FB78F9D
:1049100023E0208321CE8091510290915202A091F8
:104920005302B0915402F101EB58FF4F4081518185
:104930006281738184179507A607B70708F41CC125
:10494000F10120838FEF9FEFDC01848F958FA68F7D
:10495000B78F7ACC23EC38EB42EB5DEBC701B601A5
:104960000E94F25618160CF014CCE1E0F0E0D101F0
:104970005296FC93EE93519753968D919C91549738
:10498000892B09F035CC8FEF9FEFDC01F101848F8B
:10499000958FA68FB78FFDCB108240E050E0BA0113
:1049A000C2010E940E1E50CCAD85BE858C91EB8558
:1049B000FC858083C2010E945C1E8FEF9FEFDC01AB
:1049C000F101848F958FA68FB78F3ECC80915102D5
:1049D00090915202A0915302B0915402F101EF580C
:1049E000FF4F408151816281738184179507A6072B
:1049F000B70708F0A2CD60915102709152028091E8
:104A00005302909154027101F1E5EF0EF11CAB8954
:104A1000BC898D909D90AD90BC90681979098A09E8
:104A20009B090E94AB5520E030E04AE754E40E9425
:104A30001255ED89FE8920813181428153810E9486
:104A4000F656D7012D913D914D915C910E94A7544E
:104A5000C62ED72EE82EF92EF101C182D282E38232
:104A6000F482AFA1B8A52D913D914D915C910E942A
:104A7000A6540E942E156B017C01F101258136811F
:104A8000478150850E94F6564B015C01D1011D966D
:104A90002D913D914D915C91509719966D917D911D
:104AA0008D919C911C970E94F6569B01AC01C5010B
:104AB000B4010E94A7540E947A55AB01BC01C20107
:104AC0000E940E1E2FE832EC45E75CE3C701B601F9
:104AD0000E94F6569B01AC01F101658576858785BC
:104AE00090890E94A754D1011D966D937D938D935B
:104AF0009C935097A9CB2FE832EC45E75CE3ED811E
:104B0000FE8160817181828193810E94F656D1017C
:104B100011962D913D914D915C9114970E94A7544F
:104B2000C62ED72EE82EF92EF101C182D282E38261
:104B3000F48256CE1C9240E050E0BA01C2010E94BD
:104B40000E1EB9CE108295CCB7FAB094B7F8B094D7
:104B50005CCEAF85B8894C9150E060E070E0C20156
:104B60000E940E1E71CBE1E0A985BA85EC936CCB57
:104B7000C701B601905820CB60915102709152024A
:104B80008091530290915402F101EF58FF4FC08081
:104B9000D180E280F3806C197D098E099F090E9403
:104BA000AB5520E030E04AE754E40E941255B62E9F
:104BB000A72E982E892EF101E35AFF4F20813181D3
:104BC00042815381D501F4016B2F7A2F8F2F9E2FB5
:104BD0000E94F656D501F4012B2F3A2F4F2F5E2F4E
:104BE0000E94F65620E030E040E05FE30E94F65677
:104BF0006B017C01AD89BE892D913D914D915C91F8
:104C0000D501F4016B2F7A2F8F2F9E2F0E94F6561D
:104C10009B01AC01C701B6010E94A754F101EB5AF8
:104C2000FF4F208131814281538110CFC701B601EE
:104C30000E9447106B017C012FE832EC45E75CE3F2
:104C4000C501B4010E94F656A70196010E94F656CE
:104C50009B01AC016F89788D898D9A8D0E94A75434
:104C6000C62ED72EE82EF92E462F572F682F792FD4
:104C7000A989BA894D935D936D937C93139796CDD3
:104C800060915102709152028091530290915402AE
:104C9000F101E759FF4FC080D180E280F3806C19A9
:104CA0007D098E099F090E94AB5520E030E04AE75C
:104CB00054E40E941255F62EE72ED82EC92EF1018B
:104CC000E75AFF4F2081318142815381D701F6019C
:104CD0006B2F7A2F8F2F9E2F0E94F656D701F60149
:104CE0002B2F3A2F4F2F5E2F0E94F65620E030E0F8
:104CF00040E05FE30E94F656F101E35BFF4F208145
:104D00003181428153810E94A754C62ED72EE82EAE
:104D1000F92ED1011196CD92DD92ED92FC9214976D
:104D2000EFA1F8A520813181428153810E94A654D0
:104D30000E942E156B017C019CCB505828CD8F8989
:104D4000988DA98DBA8DB0588B8F9C8FAD8FBE8FEB
:104D50000DCD1092AB021092360F1092AF0F109241
:104D600028106EE480E00E94DA1D6EE480E00C946E
:104D7000F41D019729E7289FF001299FF00D1124C8
:104D8000EA5CF04F8CE29CEEAAECB3E48583968358
:104D9000A783B087118612861386148608957F92A2
:104DA0008F929F92AF92BF92CF92DF92EF92FF923B
:104DB0000F931F93CF93DF9300D000D0CDB7DEB712
:104DC00080E190E00E949F10813A09F444C0A2E77C
:104DD000CA2EAFE0DA2EE12CF12C01E010E0C80180
:104DE0000E947A15DC01CB01B05889839A83AB838A
:104DF000BC83F60180839183A283B38344E050E0B7
:104E0000BE016F5F7F4FC7010E94B0100F5F1F4F41
:104E1000F9E7CF0ED11C84E0E80EF11C0430110537
:104E2000F1F661EA80E190E00E94711021E030E04B
:104E3000C9010F900F900F900F90DF91CF911F91AC
:104E40000F91FF90EF90DF90CF90BF90AF909F9029
:104E50008F907F900895B2E7AB2EBFE0BB2E812CE0
:104E6000912C00E010E089E7782E709EB001719ED1
:104E7000700D11246E58704F44E050E0C4010E9440
:104E8000D510F501C080D180E280F38020E030E0D1
:104E900040E450E4C701B6010E940B5587FF0AC0E9
:104EA00020E030E040E450ECC701B6010E94F25629
:104EB00018162CF0F50110821182128213820F5FF6
:104EC0001F4FF4E08F0E911C89E7A80EB11C04302F
:104ED000110559F620E030E0ABCF1092720F10921E
:104EE000730F1092740F1092750F1092EB0F1092B7
:104EF000EC0F1092ED0F1092EE0F109264101092C2
:104F00006510109266101092671060EA80E190E0E0
:104F10000E9471100E94CF2680E090E00895609179
:104F2000190EE6E3FFE081E090E020E030E062303F
:104F300099F06330A9F04081442321F041895289DE
:104F4000452BA9F08330910571F02F5F3F4F0196FB
:104F5000E758FF4F623069F72130310561F7F5CF2F
:104F60002230310541F720E030E0C901089521E009
:104F700030E0FBCF2F923F924F925F926F927F92E1
:104F80008F929F92AF92BF92CF92DF92EF92FF9259
:104F90000F931F93CF93DF93CDB7DEB76C970FB608
:104FA000F894DEBF0FBECDBF3C011A012B0109836F
:104FB0001A832B833C8320E030E0A901C201B101B8
:104FC0000E940B5587FDEBC320E030E0A901698109
:104FD0007A818B819C810E940B5587FDD6C320E08E
:104FE00030E0A901C701B6010E940B5587FDC8C377
:104FF000C30101979A87898789E7A985BA858A9F1E
:1050000080018B9F100D11240A5C104FF80126A916
:1050100037A940AD51ADC501B4010E94A654862EFA
:10502000B72E982EA92E862F9B2DA92DBA2D8D83B4
:105030009E83AF83B887A2019101C701B6010E9488
:1050400012556B877C878D879E8729813A814B819A
:105050005C81C701B6010E9412556D8B7E8B8F8BD0
:10506000988FD80152961C921E92519720E030E002
:10507000A901682D7B2D892D9A2D0E940B5587FD46
:105080008FC17B856C859D858E85272F362F492F77
:10509000582FC701B6010E94F65620E030E040E0EC
:1050A0005FE30E94F6566F87788B682E998B7D8917
:1050B0006E899F89888D272F362F492F582FC7013A
:1050C000B6010E94F65620E030E040E05FE30E9427
:1050D000F6566A8B772E8B8B9C8B762F982F8C892C
:1050E000272F372D492F582FBF85A889E9896B2F86
:1050F0007A2F862D9E2F0E94A7549B01AC01682D0C
:105100007B2D892D9A2D0E940B5587FF98C1882DE4
:105110009B2DA92DBA2D898F9A8FAB8FBC8FA201A1
:105120009101C201B1010E94A7549B01AC0160E052
:1051300070E080E89FE30E9412554B015C012981D9
:105140003A814B815C81CA01B9010E94A7549B013D
:10515000AC0160E070E080E89FE30E9412559B0183
:10516000AC01C501B4010E94A7549B01AC01698D3B
:105170007A8D8B8D9C8D0E9412550E9463576B0116
:105180007C01A20191010E941255B62EA72E982EE5
:10519000892E29813A814B815C81C701B6010E9429
:1051A0001255762E672E8B879C8789E7A985BA854D
:1051B0008A9F80018B9F100D11240A5C104FF8010B
:1051C00012AA13AA14AA15AAE55BFF4F10826D81DB
:1051D0007E818F8198850E94471098012B593F4FFF
:1051E0003A872987A70196010E94F656A985BA85B4
:1051F0006D937D938D939C9313976D817E818F81A9
:1052000098850E9447109B01AC017801B9E5EB0E2F
:10521000F11CC201B1010E94F656F701608371834F
:10522000828393836D817E818F8198850E94471050
:105230009B01AC017801FDE5EF0EF11C69817A81DB
:105240008B819C810E94F656DC01CB01B058F7019E
:1052500080839183A283B38386E0D8018C938FEF00
:105260009FEFDC01F801848F958FA68FB78FE45BE9
:10527000FF4F81E08083F80186A997A9A0ADB1AD69
:1052800081839283A383B483E35BFF4F8083918305
:10529000A283B3838091510290915202A091530254
:1052A000B0915402F801E759FF4F80839183A283A4
:1052B000B38320E030E04AE754E4D501F4016B2FDA
:1052C0007A2F8F2F9E2F0E94F6565B016C01609102
:1052D00051027091520280915302909154027801D0
:1052E000FDE6EF0EF11C0E94AB559B01AC016A2D4F
:1052F0007B2D8C2D9D2D0E94A7540E947F55D70198
:105300006D937D938D939C931397209051023090D1
:10531000520240905302509054020B581F4F20E00D
:1053200030E04AE754E4D301FB85EC856B2F7A2FFC
:105330008F2F9E2F0E94F6569B01AC016A2D7B2D6C
:105340008C2D9D2D0E94A7546B017C01C201B101DF
:105350000E94AB559B01AC01C701B6010E94A75446
:105360000E947F55F80160837183828393836C96DA
:105370000FB6F894DEBF0FBECDBFDF91CF911F9166
:105380000F91FF90EF90DF90CF90BF90AF909F90E4
:105390008F907F906F905F904F903F902F900895E7
:1053A0006D817E818F8198859058698F7A8F8B8FE0
:1053B0009C8F7B856C859D858E85272F362F492F69
:1053C000582FC701B6010E94F65620E030E040E0B9
:1053D0005FE30E94F6566F87788B682E998B7D89E4
:1053E0006E899F89888D272F362F492F582FC70107
:1053F000B6010E94F65620E030E040E05FE30E94F4
:10540000F6566A8B772E8B8B9C8B762F982F8C89F8
:10541000272F372D492F582FBF85A889E9896B2F52
:105420007A2F862D9E2F0E94A7549B01AC01698D77
:105430007A8D8B8D9C8D0E940B5587FD70CE89E7F0
:1054400029853A85829F5001839FB00C112466E321
:105450007FE0A60EB71ED501D2961D921D921D9219
:105460001C92D597F501E55BFF4F10826D817E811F
:105470008F8198850E9447109B01AC0185010B59D3
:105480001F4FC701B6010E94F656F8016083718371
:10549000828393836D817E818F8198850E944710DE
:1054A0009B01AC018501075A1F4FC201B1010E9447
:1054B000F656D8016D937D938D939C9313976D81D0
:1054C0007E818F8198850E9447109B01AC018501E8
:1054D000035A1F4F69817A818B819C810E94F65605
:1054E000DC01CB01B058F80180839183A283B383A0
:1054F00086E0D5018C938FEF9FEFDC01F501848F5F
:10550000958FA68FB78FE45BFF4F1082F50186A9B8
:1055100097A9A0ADB1AD81839283A383B4838501A4
:10552000035B1F4FF80180839183A283B3836D8156
:105530007E818F8198850E9447109B01AC01F1E527
:10554000AF0EB11CC201B1010E94F656BB85AC85FD
:10555000FD85EE852B2F3A2F4F2F5E2F0E94F6569A
:10556000BB85AC85FD85EE852B2F3A2F4F2F5E2F07
:105570000E94F65620E030E040E05FE30E94F656DD
:10558000D8012D913D914D915C910E94A754F50158
:10559000608371838283938320E030E0A9016D8171
:1055A0007E818F8198850E940B5587FDFDC06D819E
:1055B0007E818F819885BF85A889E9892B2F3A2F15
:1055C000462D5E2F0E94A654BA89FB89EC892B2FA9
:1055D000372D4F2F5E2F0E94A6545B018C01CB010B
:1055E000D80189839A83AB83BC8320E030E0A90192
:1055F000B501C8010E940B5587FDDCC0C501D8016B
:105600004C015D016D817E818F8198850E944710DC
:105610009B01AC0189E769857A85869F8001879F18
:10562000100D11240A5C104F380175E5670E711CCE
:10563000C501B4010E94F656F801EF5AFF4F2081D0
:105640003181428153810E94A754D3016D937D9390
:105650008D939C9313978091510290915202A09147
:105660005302B0915402F801E759FF4F80839183B0
:10567000A283B38320E030E04AE754E4BB85AC85E5
:10568000FD85EE856B2F7A2F8F2F9E2F0E94F65669
:105690003B01582E492E6091510270915202809127
:1056A0005302909154025801BDE6AB0EB11C0E940A
:1056B000AB559B01AC01F201662D772D8F2F9E2FEC
:1056C0000E94A7540E947F55F501608371838283F5
:1056D00093838090510290905202A0905302B09018
:1056E0005402A701960169817A818B819C810E9475
:1056F000125520E030E04AE754E40E94F6569B0140
:10570000AC01F201662D772D8F2F9E2F0E94A7549A
:105710006B017C01C501B4010E94AB559B01AC013A
:10572000C701B6010E94A7540E947F55F801EF58A7
:10573000FF4F60837183828393830B581F4F0E94B6
:10574000AB556B017C0120E030E04AE754E4FD8971
:10575000EE89BF89A88D6F2F7E2F8B2F9A2F0E94E5
:10576000F6569B01AC01C701B6010E94A7540E94E6
:105770007F55D8016D937D938D939C931397F7CDAF
:10578000F7FAF094F7F8F09433CC69817A818B8141
:105790009C81905869837A838B839C8320CC57FAB1
:1057A000509457F8509410CC6D817E818F819885EC
:1057B000905801CF89809A80AB80BC80B7FAB094B2
:1057C000B7F8B0941FCF8091980290919902892BDD
:1057D00059F080919502882339F080919A028130A6
:1057E00009F45AC0823009F0089580ED8093750362
:1057F00089E1809376038091980290919902909329
:105800007703809198029091990280937803109287
:10581000790389E380937A0383E180937B0380910A
:105820006C0F90916D0FA0916E0FB0916F0F8093E0
:105830007C0390937D03A0937E03B0937F038091BC
:10584000E50F9091E60FA091E70FB091E80F8093DC
:10585000800390938103A0938203B093830380918C
:105860005E1090915F10A0916010B09161108093D4
:10587000840390938503A0938603B09387031092CB
:105880008C0382E180938D0320E04FEF5FEF69E1AD
:1058900085E793E00C94B2470E94CB0A80911A0FDF
:1058A00090911B0F2091130E3091140E97FD53C051
:1058B00095958795959587959595879595958795D0
:1058C0009595879537FD49C0A901042E452F000CF9
:1058D000441F550B000C441F551F22273327281B3C
:1058E000390B241B350B841B950B40ED409375033E
:1058F00040E1409376034091980250919902509371
:105900007703409198025091990240937803109246
:10591000790348E640937A034AE040937B0345E0ED
:1059200040937C0330937D0320937E0390937F0309
:10593000809380039093810380938203109283036A
:1059400082E18093840320E04FEF5FEF60E185E721
:1059500093E00C94B2474F96ABCF215C3F4FB4CF4E
:1059600080E8E0EEF5E1DF011D928A95E9F71092FB
:1059700031111092AB021092430384E690E0A0E054
:10598000B0E08093440390934503A0934603B09303
:10599000470383EE9BE29093490380934803089565
:1059A000CF93DF9300D000D01F92CDB7DEB78091A8
:1059B000980290919902892BC1F086ED898385E048
:1059C0008A8380919802909199029B83809198029A
:1059D000909199028C8382E18D8320E04FEF5FEFFD
:1059E00065E0CE0101960E94B2470F900F900F9094
:1059F0000F900F90DF91CF91089520E030E005C027
:105A00002F5F3F4F2034310559F0F901EE0FFF1F92
:105A1000E052FA4E408151818417950789F7089525
:105A200020E030E005C02F5F3F4F20343105B9F34F
:105A3000F901EE0FFF1FE052FA4E40815181452BD4
:105A400091F7918380830895EF92FF920F931F93B4
:105A5000CF93DF93CDB7DEB729970FB6F894DEBFAB
:105A60000FBECDBF8C01DC0118968C9118971F9248
:105A70008F9317968C9117971F928F9313968C91F3
:105A800013978F9312968C9112978F9315968C91F2
:105A90001F928F938DEC92E09F938F938AE19EE00B
:105AA0009F938F930E94D0380FB6F894DEBF0FBE3D
:105AB000CDBFD80115968C91863D08F5813D90F1BA
:105AC00080919402409190025091910260919202D3
:105AD00070919302480F511D611D711D477055272C
