:100000000C947E010C949D010C949D010C949D0117
:100010000C949D010C949D010C949D010C949D01E8
:100020000C949D010C949F010C949D010C949D01D6
:100030000C949D010C949D010C949D010C949D01C8
:100040000C949D010C949D010C949D010C949D01B8
:100050000C949D010C949D010C949D010C949D01A8
:100060000C949D010C949D010C949D010C949D0198
:100070000C949D010C94BF080C949D010C949D015F
:100080000C949D010C949D010C949D010C949D0178
:100090000C94511A0C949D010C949D010C94352ED6
:1000A0000C949D010C949D010C94AF360C94C036B9
:1000B0000C949D010C949D010C949D010C940B03D8
:1000C0000C949D010C949D010C949D010C949D0138
:1000D0000C949D010C949D010C949D010C949D0128
:1000E0000C949D010C949D010C949D010C949D0118
:1000F0000C94E9370C949D010C949D010C94BD3730
:100100000C949D010C949D010C949D010C949D01F7
:100110000C949D010C949D010C949D010C949D01E7
:10012000AB214D1C3E1F581F631FA41FB21FD51FBC
:10013000CA1DED1D0D1E511E7D1ED21E0E1F362323
:10014000261F771C901CB91CF61C301D461D6A1D0D
:10015000A61B701D791D871D9C1DB61DB91DBB1DDD
:10016000C41DFB230824A61B19243924C4249A2463
:10017000B324FD200E21192121216621501C932139
:1001800069216E218B25A3253F1CC225BA26942602
:100190009C264E2351235E238F239223B123A61B3B
:1001A000A61BA61BA61BA61BA61BA61BD223EE23C3
:1001B000F423BB21BE210F228C229D22B522CF2207
:1001C000F81FB020DF1BA61B191CDC200F202E20DF
:1001D00033208A208D265C267126E72508262026D6
:1001E0004126EA24102A762BEA2A182B8E2A4A2B3B
:1001F0006E2B992AB52A8E2AC32A6E616E00696E0B
:10020000660000407A10F35A00A0724E18090010E0
:10021000A5D4E80000E87648170000E40B5402007B
:1002200000CA9A3B000000E1F505000080969800A6
:10023000000040420F000000A086010000001027CF
:1002400000000000E803000000006400000000005F
:100250000A00000000000100000000002C76D88891
:10026000DC674F0823DFC1DFAE59E1B1B796E5E3A4
:10027000E453C63AE651997696E8E6C28426EB89BD
:100280008C9B62ED407C6FFCEFBC9C9F40F2BAA55A
:100290006FA5F490055A2AF75C936B6CF9676DC1F2
:1002A0001BFCE0E40D47FEF520E6B500D0ED902EF6
:1002B0000300943577050080841E080000204E0A54
:1002C000000000C80C333333330F986E1283114192
:1002D000EF8D2114893BE65516CFFEE6DB18D1845D
:1002E0004B381BF77C1D901DA4BBE4242032847284
:1002F0005E228100C9F124ECA1E53D2711241FBE37
:10030000CFEFD1E4DEBFCDBF13E0A0E0B2E0E8EE76
:10031000F3E900E00BBF02C007900D92AA35B107C8
:10032000D9F715E3AAE5B3E001C01D92AA33B107DE
:10033000E1F70E94D4050C94F2490C9400001F923E
:100340000F920FB60F9211240F900FBE0F901F90B7
:1003500018951092B100249808959C01009709F116
:100360008A3F910578F085E08093B10064E274EFF4
:1003700080E090E0249A40E050E00E94654620939F
:10038000B300089587E08093B10064E87EE180E0E7
:1003900090E0249A40E050E00E9465462093B3002C
:1003A00008950C94A901CF93C82FCF7082958F70B8
:1003B000F9F061E090E0660F9F5F9813FCCF70E06A
:1003C00080E090E00E94AC40EC2FF0E0EE0FFF1FC9
:1003D000EE0FFF1FE25FFD4F20813181428153818B
:1003E0000E94BC410E947E40CB01CF910C94AD0194
:1003F00060E070E080E89FE3E7CF0F931F93CF9317
:10040000DF9300D0CDB7DEB70E94A90180910C0226
:1004100090910D02009709F484C020910A02309156
:100420000B02281739070CF062C08091240D90E070
:10043000982F8827220F331F820F931F45960E9403
:1004400062080E94D3018091240D90E0982F8827A4
:1004500020910A0230910B02220F331F820F931F4B
:1004600044960E94620880935A0340910A02509178
:100470000B024F5F5F4F50930B0240930A02609153
:100480000C0270910D026417750794F40E94FE47E8
:100490008A830E94FE4789830E94FE474A816981C0
:1004A0000F900F90DF91CF911F910F910C9431031A
:1004B0001092250D282F30E040E050E060915B0362
:1004C00070915C0380915D0390915E030E944346AE
:1004D0002093260D3093270D4093280D5093290D1E
:1004E0008DEF91E090932B0D80932A0DCFCF81E07B
:1004F0008093250D10920B0210920A0210920D02A9
:1005000010920C020E94A90110923E024FEF60E08F
:1005100080E00F900F90DF91CF911F910F910C947D
:1005200031038091240D90E0982F882742960E94F5
:10053000620880935F038091240D90E0982F8827B4
:1005400043960E946208082F10E010930D0200935A
:100550000C0220915F0330E040E050E060E879EA6F
:1005600083E090E00E94434620935B0330935C035A
:1005700040935D0350935E03C8014FCF91E0909389
:100580003E02E5E2FDE02FE0DF011D922A95E9F74A
:1005900090832DEF31E030932B0D20932A0D809323
:1005A000240DCF010C947D2D8091340D9091350D4B
:1005B00001979093350D8093340D181619061CF091
:1005C00081E08093530E2091480D20583091470DC3
:1005D00030584091460D405850E1459FC0011124CC
:1005E000909399008093980050E1359FC0011124A9
:1005F00090939D0080939C0050E1259FC0011124A1
:1006000090939B0080939A004093460D3093470D42
:100610002093480D08951F920F920FB60F92112448
:100620008F939F93AF93BF9380915D0290915E02F1
:10063000A0915F02B09160020196A11DB11D80934F
:100640005D0290935E02A0935F02B0936002BF913F
:10065000AF919F918F910F900FBE0F901F901895A3
:10066000089590E1899F900111243093990020937F
:10067000980090E1699F9001112430939D00209390
:100680009C0090E1499F9001112430939B0020939E
:100690009A008093460D6093470D4093480D08954E
:1006A0000F93CF93DF9300D01F92CDB7DEB781E0D9
:1006B0008B8302E09E012F5F3F4F41E0BE016D5FE3
:1006C0007F4F8CE10E9415300E944230898190E07A
:1006D000982F88279093430D8093420D8091420D6F
:1006E0009091430D2A81822B9093430D8093420D6C
:1006F00083E08B839E012F5F3F4F41E0BE016D5F22
:100700007F4F8CE10E9415300E944230898190E039
:10071000982F882790934B0E80934A0E80914A0E13
:1007200090914B0E2A81822B90934B0E80934A0E10
:1007300085E08B839E012F5F3F4F41E0BE016D5FDF
:100740007F4F8CE10E9415300E944230898190E0F9
:10075000982F88279093710E8093700E8091700E61
:100760009091710E2A81822B9093710E8093700E5E
:1007700080E00F900F900F90DF91CF910F9108952F
:100780008823D9F120EF3FE09FEF1092990010925B
:10079000980030939D0020939C0010929B00109233
:1007A0009A001092460D9093470D1092480D4FEF0E
:1007B00051EE64E0415050406040E1F700C000005D
:1007C000309399002093980010929D0010929C0005
:1007D00010929B0010929A009093460D1092470D34
:1007E0001092480D4FEF51EE64E041505040604090
:1007F000E1F700C00000815041F608952091340DCA
:100800003091350D121613060CF4089590E0880F00
:10081000991F9093350D8093340D1092530E409391
:10082000540E5093550E6093560E7093570E84EDF0
:1008300092E09093590E8093580E83E59EE00C94BD
:100840007D2D9AE09093770090914C0E923001F1BB
:1008500090917C00907C90937C0090917C00906CB7
:1008600090937C0090917C00982B90937C008091D9
:100870007A00876C80937A0080917A0086FDFCCFA5
:100880008091780020917900237090E0922B089558
:1008900010927C0090917C00982B90937C00E7CF85
:1008A000CF93DF9380E294E00E94620880934C0E25
:1008B00081E294E00E94620880934D0E82E294E00F
:1008C0000E94620880934E0E80914C0E823009F493
:1008D0005BC08DEC9CECACECBFE380936B0E909313
:1008E0006C0EA0936D0EB0936E0E819A89982FEFC7
:1008F00081EE94E0215080409040E1F700C000007C
:1009000082E00E942104EC018198829A8A982FEF5C
:1009100081EE94E0215080409040E1F700C000005B
:1009200081E00E9421048298C436D105ACF082E0B7
:100930008093490D83E08093450D82E090E0909391
:10094000500E80934F0E81E090E09093520E809372
:10095000510EDF91CF9108958436910544F783E0DD
:100960008093490D82E08093450D84E090E0909360
:10097000500E80934F0E83E090E09093520E809340
:10098000510EDF91CF91089580E090E0A0EABFE39F
:1009900080936B0E90936C0EA0936D0EB0936E0EC1
:1009A0006A98729A2FEF80E792E021508040904041
:1009B000E1F700C00000629BD2CFB9CFE1E6F0E0E2
:1009C00080E880831082F89480EF84B98BB1806EC8
:1009D0008BB9E8E6F0E0808181608083EBE6F0E0AF
:1009E0008081826080838081846080838081886050
:1009F00080838FB780688FBF88E18AB98BB18360AD
:100A00008BB98FE78DB98FE383BB0E9450043AEA1C
:100A10003093800029E1209381008FEF9FE0909335
:100A200087008093860030939000209391009093EC
:100A30009700809396001092250110922401E3E71D
:100A4000F0E0808182608083E1E2F1E080818C606F
:100A500080838EE390E09093290180932801909306
:100A600027018093260184B7877F84BFE0E6F0E00A
:100A7000808188618083108280EC80937C0010925A
:100A80007B008FEE80937A000E94240C7894089566
:100A9000E82FF0E0EE0FFF1FE158FF4E60817181FB
:100AA00080E090E00E94AA4020916B0E30916C0E85
:100AB00040916D0E50916E0E0E94BC4120E030E0DE
:100AC00040E85AE30E94BC41089560917F10709104
:100AD000801080E090E00E94AA4020916B0E30913F
:100AE0006C0E40916D0E50916E0E0E94BC4120E044
:100AF00030E040E85AE30E94BC412EE63BED46EB75
:100B00005EE30E9411400895CF93DF93CDB7DEB727
:100B10002C970FB6F894DEBF0FBECDBF69877A87DA
:100B20008B879C8780915D0290915E02A0915F020D
:100B3000B091600289839A83AB83BC8329813A8117
:100B40004B815C8189859A85AB85BC85820F931F1B
:100B5000A41FB51F8D839E83AF83B88700002091AB
:100B60005D0230915E0240915F02509160028D8182
:100B70009E81AF81B88582179307A407B50778F7E0
:100B80002C960FB6F894DEBF0FBECDBFDF91CF918C
:100B9000089580916000886180936000809160007A
:100BA0008D6080936000FFCF0E94231A0E94DE04B4
:100BB0000E9494298091580290915902A0915A0262
:100BC000B0915B02AD0166277727842795270E94A5
:100BD000024880EF9FE090939900809398001092D4
:100BE0009D0010929C0090939B0080939A008FEF41
:100BF0008093460D1092470D8093480D0E94052E5C
:100C00000E94E71A0E9457350E94F829F7CFCF9229
:100C1000DF92EF92FF926B017C0120E030E0A901AE
:100C20000E940D4087FD1AC020E030E0A901C701F5
:100C3000B6010E94B84118164CF460E070E080E8FC
:100C40009FE3FF90EF90DF90CF90089560E070E019
:100C5000CB01FF90EF90DF90CF90089560E070E0BF
:100C600080E89FEBFF90EF90DF90CF900895209168
:100C7000610230916202232B59F04091690E50912C
:100C80006A0E20916102309162024217530719F5F2
:100C90002091A4024091690E50916A0EFC0161817D
:100CA00070E021110DC021E00E94341BFC01418144
:100CB00050E020E030E0BC0180E392E10C941E3F64
:100CC00021E00E94341BFC014181BC0182E00E94B2
:100CD000DB2F0C944230409161025091620221E07E
:100CE000FC0161810C94032DCF93DF9300D000D0E1
:100CF00000D0CDB7DEB70E9450038091420D909195
:100D0000430D9A83898380914A0E90914B0E9C8368
:100D10008B838091700E9091710E9E838D83FE0166
:100D2000319680E090E02091560230E0082E02C01B
:100D3000359527950A94E2F720FF15C0DC01AA0F2C
:100D4000BB1FAD59B14F2D913C9111976D917C9185
:100D5000409143025091440220813181261B370B80
:100D60004217530770F00196329683309105D9F6F9
:100D700026960FB6F894DEBF0FBECDBFDF91CF91A0
:100D8000089569817A817093640E6093630E4B813C
:100D90005C815093660E4093650E2D813E813093A9
:100DA000680E2093670E85E28093472A8DE080933A
:100DB000482A80915D0290915E02A0915F02B091FD
:100DC00060028093492A90934A2AA0934B2AB093B9
:100DD0004C2A70934D2A60934E2A50934F2A409389
:100DE000502A3093512A2093522A1092532A87E492
:100DF0009AE226960FB6F894DEBF0FBECDBFDF9104
:100E0000CF910C9437063F924F925F926F927F92F0
:100E10008F929F92AF92BF92CF92DF92EF92FF920A
:100E20000F931F93CF93DF93CDB7DEB760970FB6C5
:100E3000F894DEBF0FBECDBF09EA1EE0CE010196D9
:100E40007C01F80164817581882777FD8095982F52
:100E50000E94AC402BED3FE049EC50E40E94BC41C5
:100E60009B01AC01F80160817181828193810E94B4
:100E7000A93FF70161937193819391937F010D577E
:100E80001F4FF0E1053B1F07E1F68091450D8823D8
:100E900009F4CEC0CE0101967C01312C00E010E0B7
:100EA00088248394912C28C0C301B2010E94A83FDA
:100EB000F601EB5BFD4F20813181428153810E941D
:100EC000B841181674F4C401002E01C0880F0A94AA
:100ED000EAF7382AF601EA5CF24F408251826282D8
:100EE00073820F5F1F4F8091450DF4E0EF0EF11CF0
:100EF00090E008171907A4F58091550290E0002EA4
:100F000002C0959587950A94E2F780FFEACFF70132
:100F100040805180628073806801CC0CDD1CCC0C59
:100F2000DD1CC6018A5C924F5C01FC01208131818D
:100F300042815381C301B2010E94A83F20E030E00A
:100F4000A9010E940D40F501208131814281538128
:100F500087FFAACFC301B2010E94A83F9058A8CF33
:100F6000332009F465C084E28093472A88E18093A6
:100F7000482A80915D0290915E02A0915F02B0913B
:100F800060028093492A90934A2AA0934B2AB093F7
:100F90004C2A89819A81AB81BC8180934D2A9093A0
:100FA0004E2AA0934F2AB093502A8D819E81AF8103
:100FB000B8858093512A9093522AA093532AB093D4
:100FC000542A89859A85AB85BC858093552A909350
:100FD000562AA093572AB093582A8D859E85AF85AF
:100FE000B8898093592A90935A2AA0935B2AB09388
:100FF0005C2A30925D2A10925E2A87E49AE260961B
:101000000FB6F894DEBF0FBECDBFDF91CF911F9119
:101010000F91FF90EF90DF90CF90BF90AF909F9097
:101020008F907F906F905F904F903F900C94370619
:1010300060960FB6F894DEBF0FBECDBFDF91CF91A3
:101040001F910F91FF90EF90DF90CF90BF90AF90E6
:101050009F908F907F906F905F904F903F900895FA
:1010600020916302211101C0F8947FEF54E144E222
:10107000F999FECF2AE030E0000021503109211516
:101080003105D1F792BD81BD70BD5FBBF99AF99969
:10109000FECF2AE030E00000215031092115310552
:1010A000D1F760BD4FBBF99AF999FECF92BD81BDD2
:1010B000F89A20B56213DCCF80916302811101C0E0
:1010C0007894089520916302211101C0F894F99950
:1010D000FECF92BD81BDF89A80916302811101C05B
:1010E000789480B50895EF92FF920F931F93CF935A
:1010F000DF93F89421E0209363021416150674F42C
:10110000EB017B01E40EF51E8C016991C8010E9480
:1011100030080F5F1F4FCE15DF05B9F7109263023D
:101120007894DF91CF911F910F91FF90EF900895E8
:10113000EF92FF920F931F93CF93DF93F89421E0E8
:10114000209363021416150684F47B01E40EF51E49
:10115000EB018C01061B170BC8018C0F9D1F0E9411
:1011600062088993CE15DF05B9F71092630278946F
:10117000DF91CF911F910F91FF90EF9008951F92F3
:101180000F920FB60F9211240BB60F922F923F922F
:101190004F925F926F927F928F929F92AF92BF9287
:1011A000CF92DF92EF92FF920F931F932F933F9373
:1011B0004F935F936F937F938F939F93AF93BF935F
:1011C000EF93FF93CF93DF9300D000D0CDB7DEB77E
:1011D000809165028F5F80936502833008F460C060
:1011E0001092650230916402E32FF0E08091780064
:1011F00090E0EE0FFF1FE158FF4E918380838081C6
:101200009181209179002370922B9183808380912A
:10121000410290914202892B41F080913F029091CE
:101220004002892B11F03730F1F13F5F30936402B7
:10123000383008F064C280917C00807E80937C000E
:1012400080917C0090916402892B80937C000F90A8
:101250000F900F900F90DF91CF91FF91EF91BF9181
:10126000AF919F918F917F916F915F914F913F913E
:101270002F911F910F91FF90EF90DF90CF90BF9033
:10128000AF909F908F907F906F905F904F903F9026
:101290002F900F900BBE0F900FBE0F901F901895C0
:1012A0008111D5CF9FCF60918B1070918C10C09021
:1012B0006B0ED0906C0EE0906D0EF0906E0E882745
:1012C00077FD8095982F0E94AC40A70196010E945F
:1012D000BC4120E030E040E85AE30E94BC4123E3F7
:1012E00033E343E35FE30E94A83F4B015C0120E04E
:1012F00030E0A9010E940D4087FD04C22DEC3CECBA
:101300004CE45EE3C501B4010E940D4087FDD7C0E7
:101310006091891070918A10882777FD8095982FA9
:101320000E94AC409B01AC01C701B6010E94BC41C8
:1013300020E030E040E85AE30E94BC4123E333E37D
:1013400043E35FE30E94A83F4B015C0120E030E0F3
:10135000A9010E940D4087FDF7C12DEC3CEC4CE447
:101360005EE3C501B4010E940D4087FDA8C0209036
:10137000680230906902B101882777FD8095982F27
:101380000E94AC4020916E0230916F024091700239
:10139000509171020E94BC414B015C0160918B1025
:1013A00070918C100091891010918A10882777FD18
:1013B0008095982F0E94AC40A70196010E94BC41E5
:1013C00020E030E040E85AE30E94BC412B013C01A0
:1013D000B801882777FD8095982F0E94AC40A7011F
:1013E00096010E94BC4120E030E040E85AE30E94B0
:1013F000BC419B01AC01C301B2010E94A83F20E0A7
:1014000030E0A9010E940D4087FDE5C160918B107D
:1014100070918C100091891010918A10882777FDA7
:101420008095982F0E94AC40A70196010E94BC4174
:1014300020E030E040E85AE30E94BC412B013C012F
:10144000B801882777FD8095982F0E94AC40A701AE
:1014500096010E94BC4120E030E040E85AE30E943F
:10146000BC419B01AC01C301B2010E94A83F9B019A
:10147000AC010E94A93F9B01AC018FEF281A380AEA
:10148000C501B4010E94A93F4B015C01B10188274D
:1014900077FD8095982F0E94AC409B01AC01C5015F
:1014A000B4010E94114060936E0270936F028093AA
:1014B000700290937102309269022092680220902B
:1014C0004F0E3090500E220C331CF101E158FF4EAC
:1014D00060817181882777FD8095982F0E94AC40AC
:1014E0009B01AC01C701B6010E94BC4120E030E085
:1014F00040E85AE30E94BC4123E333E343E35FE364
:101500000E94A83F4B015C0120E030E0A9010E944D
:101510000D4087FD03C12DEC3CEC4CE45EE3C501BE
:10152000B4010E940D4087FDEAC00091510E109158
:10153000520E000F111FF801E158FF4E60817181BA
:10154000882777FD8095982F0E94AC409B01AC01C5
:10155000C701B6010E94BC4120E030E040E85AE3F8
:101560000E94BC4123E333E343E35FE30E94A83FCF
:101570004B015C0120E030E0A9010E940D4087FD95
:10158000D8C02DEC3CEC4CE45EE3C501B4010E94F4
:101590000D4087FDB4C0A0906602B0906702B5010F
:1015A000882777FD8095982F0E94AC4020916A0291
:1015B00030916B0240916C0250916D020E94BC41CF
:1015C0002B013C01C10181589F4E4C01FC016081FF
:1015D0007181C80181589F4E1C01FC01008111815D
:1015E000882777FD8095982F0E94AC40A70196012F
:1015F0000E94BC4120E030E040E85AE30E94BC4138
:1016000069837A838B839C83B801882777FD8095D3
:10161000982F0E94AC40A70196010E94BC4120E097
:1016200030E040E85AE30E94BC419B01AC01698173
:101630007A818B819C810E94A83F20E030E0A90143
:101640000E940D4087FD8CC0F40160817181F10121
:1016500000811181882777FD8095982F0E94AC40EA
:10166000A70196010E94BC4120E030E040E85AE327
:101670000E94BC4169837A838B839C83B80188274D
:1016800077FD8095982F0E94AC40A70196010E949B
:10169000BC4120E030E040E85AE30E94BC419B019D
:1016A000AC0169817A818B819C810E94A83F9B015A
:1016B000AC010E94A93F9B01AC01FFEFAF1ABF0A2A
:1016C000C301B2010E94A93F6B017C01B5018827CB
:1016D00077FD8095982F0E94AC409B01AC01C7011B
:1016E000B6010E94114060936A0270936B0280936E
:1016F0006C0290936D02B0926702A0926602109203
:10170000640299CD2DEC3CEC4CE45EEBC501B401D8
:101710000E94B84118160CF4D2CEFACD2DEC3CEC58
:101720004CE45EEBC501B4010E94B84118163CF3CD
:10173000FCCE2DEC3CEC4CE45EEBC501B4010E9408
:10174000B8411816E4F227CF2DEC3CEC4CE45EEBEC
:10175000C501B4010E94B84118160CF4B0CE07CEF2
:10176000F40160817181F10100811181882777FD89
:101770008095982F0E94AC40A70196010E94BC4121
:1017800020E030E040E85AE30E94BC4169837A835C
:101790008B839C83B801882777FD8095982F0E94C2
:1017A000AC40A70196010E94BC4120E030E040E837
:1017B0005AE30E94BC419B01AC0169817A818B8113
:1017C0009C810E94A83F90589B01AC010E94A93FB8
:1017D0009B01AC0172CF60918B1070918C100091C5
:1017E000891010918A10882777FD8095982F0E9484
:1017F000AC40A70196010E94BC4120E030E040E8E7
:101800005AE30E94BC412B013C01B801882777FDB7
:101810008095982F0E94AC40A70196010E94BC4180
:1018200020E030E040E85AE30E94BC419B01AC015B
:10183000C301B2010E94A83F90589B01AC010E94D5
:10184000A93F9B01AC0119CE2F923F924F925F921C
:101850007F928F929F92AF92BF92CF92DF92EF9240
:10186000FF920F931F93CF93DF938CE092E0E3E717
:10187000FEE0DF019C011D9221503040E1F7C5E9F7
:10188000DEE031E2832E31E3932E38E9A32E34E4F7
:10189000B32E40E5C42E47E7D42E46EDE42E4DE3AB
:1018A000F42E4FEF5FEFBA010FEF1FEFA0E87A2E93
:1018B000B3EF2B2EB6E63B2EBFED4B2EBFE35B2ED8
:1018C0001082118212821382148285829682A782EC
:1018D000B086C186D286E386F4861586168617867C
:1018E000108A128A118A148A138A9E012D50310996
:1018F000D9011C92168A178A108E118E138E128EA1
:10190000448F558F668F778F11A300A378822C8226
:101910003D824E825F82188A198A1A8A1B8A198E22
:10192000188E9F012F593F4FD9011D921D921D9274
:101930001C921397ED57FF4FCD57DF4FBFE0EC3FA1
:10194000FB0709F0BDCF80914C0E823061F185EA32
:101950009FE9AFECBFE38093760290937702A09368
:101960007802B09379028093720290937302A093ED
:101970007402B093750286E194E00E946208813A95
:1019800039F1DF91CF911F910F91FF90EF90DF9090
:10199000CF90BF90AF909F908F907F905F904F902F
:1019A0003F902F90089582E79CE6ACE9BFE38093D7
:1019B000760290937702A0937802B0937902809395
:1019C000720290937302A0937402B0937502D9CF00
:1019D00044E050E066E772E087E194E00E949808F6
:1019E00044E050E062E772E08BE194E0DF91CF9158
:1019F0001F910F91FF90EF90DF90CF90BF90AF902D
:101A00009F908F907F905F904F903F902F900C947D
:101A10009808CF92DF92EF92FF922BED3FE049ECD6
:101A200050E40E94EE406B017C012BED3FE049E465
:101A300050E40E94B841181654F42BED3FE049ECF5
:101A400050E4C701B6010E94A83F6B017C012BED59
:101A50003FE049E450ECC701B6010E940D4087FF0A
:101A60000AC02BED3FE049EC50E4C701B6010E94EB
:101A7000A93F6B017C01C701B601FF90EF90DF9099
:101A8000CF9008952091490D2230F1F0233011F1CB
:101A9000019723E8289FF001299FF00D1124ED58AC
:101AA000F14F82E080834183528363837483128A7F
:101AB000118A8DE491E0A0E0B0E0848F958FA68F2D
:101AC000B78F80E090E008958230910509F78FEF9D
:101AD0009FEF089583309105D9F6F9CF2F923F9269
:101AE0004F925F926F927F928F929F92AF92BF922E
:101AF000CF92DF92EF92FF920F931F93CF93DF93DA
:101B0000CDB7DEB72E970FB6F894DEBF0FBECDBFB0
:101B10009A8389832A013B01680179011C0121E034
:101B2000221A310883E8829DF001839DF00D112473
:101B3000ED58F14F8CE29CEEAAECB3E485839683DA
:101B4000A783B08711861286138614861091490DDB
:101B5000123009F4F8C0133009F4FDC020E030E081
:101B6000A901C701B6010E940D40882309F4C3C032
:101B700083E8829DF001839DF00D1124ED58F14F13
:101B8000FE87ED8786A997A9A0ADB1AD8D839E8311
:101B9000AF83B8879C01AD01C301B2010E94A83F89
:101BA0004B015C0120E030E0A9010E940D4087FD5F
:101BB000A5C023EC38EB42E35EE3C501B4010E940B
:101BC0000D4087FDA6C020E030E0A901C701B601A5
:101BD0000E940D4087FDE3C0A7019601C501B40135
:101BE0000E94114020E030E04AE754E40E94BC41EA
:101BF00069837A838B839C8320E030E0A901C5014F
:101C0000B4010E94B84118160CF0BCC05C2D4D2DDB
:101C10003E2D2F2D852F942FA32FB22FED85FE85DE
:101C200082AB93ABA4ABB5AB83E8829DF001839DFF
:101C3000F00D1124ED58F14F82A993A9A4A9B5A9DB
:101C400086A797A7A0ABB1AB8D819E81AF81B885E8
:101C5000ED85FE8581839283A383B48315861686E2
:101C60001786108A20E030E040E751E469817A81EC
:101C70008B819C810E9411406B017C0120E030E04F
:101C8000A9010E940D4087FD77C0C701B6010E94DF
:101C90007940CB01AA2797FDA095BA2FED85FE8547
:101CA000848F958FA68FB78F128A118A468A578A9A
:101CB000608E718E81E090E0938F828F83E08083CD
:101CC00080E090E02E960FB6F894DEBF0FBECDBF39
:101CD000DF91CF911F910F91FF90EF90DF90CF9008
:101CE000BF90AF909F908F907F906F905F904F903C
:101CF0003F902F90089580E090E0E4CF23EC38EB04
:101D000042E35EEBC501B4010E94B84118160CF025
:101D10005ACF123061F1133021F182E0AD85BE85DA
:101D20008C93FD014182528263827482128A118AED
:101D30008DE491E0A0E0B0E0848F958FA68FB78FFF
:101D400080E090E0BFCF89819A81029709F006CFA9
:101D50008FEF9FEFB7CFA981BA81139709F0FECE1D
:101D6000F7CF29813A8123303105B9F6F1CFE981E6
:101D7000FA81329791F6ECCFC701B60190580E94D4
:101D8000794087CFF7FAF094F7F8F094AD85BE85E7
:101D9000D296CD92DD92ED92FC92D59745CFD701A8
:101DA000C601B05889879A87AB87BC879C01AD0173
:101DB000C501B4010E94114020E030E04AE754E43C
:101DC0000E94BC4169837A838B839C8320E030E04E
:101DD000A901C501B4010E94B8411816BCF6598585
:101DE0004A853B852C8516CF2F923F924F925F926A
:101DF0006F927F928F929F92AF92BF92CF92DF921B
:101E0000EF92FF920F931F93CF93DF93CDB7DEB77F
:101E10002E970FB6F894DEBF0FBECDBF9A8389838D
:101E20002A013B01680179011C0121E0221A3108D5
:101E300083E8829DF001839DF00D1124ED58F14F50
:101E40008CE29CEEAAECB3E485839683A783B087EB
:101E500011861286138614861091490D123009F4EA
:101E60000EC1133009F413C120E030E0A901C7010D
:101E7000B6010E940D40882309F4D9C083E8829DF1
:101E8000F001839DF00D1124ED58F14FFE87ED8791
:101E900086A997A9A0ADB1AD8D839E83AF83B88786
:101EA00062AD73AD882777FD8095982F0E94AC4076
:101EB0002BED3FE049EC50E40E94BC419B01AC019A
:101EC0006D817E818F8198850E94A93F9B01AC0125
:101ED000C301B2010E94A83F4B015C0120E030E049
:101EE000A9010E940D4087FDA5C023EC38EB42E319
:101EF0005EE3C501B4010E940D4087FDA6C020E04D
:101F000030E0A901C701B6010E940D4087FDE3C082
:101F1000A7019601C501B4010E94114020E030E004
:101F20004AE754E40E94BC4169837A838B839C8393
:101F300020E030E0A901C501B4010E94B8411816A3
:101F40000CF0BCC05C2D4D2D3E2D2F2D852F942FD8
:101F5000A32FB22FED85FE8582AB93ABA4ABB5ABBF
:101F600083E8829DF001839DF00D1124ED58F14F1F
:101F700082A993A9A4A9B5A986A797A7A0ABB1AB3D
:101F80008D819E81AF81B885ED85FE8581839283A9
:101F9000A383B483158616861786108A20E030E066
:101FA00040E751E469817A818B819C810E941140D4
:101FB0006B017C0120E030E0A9010E940D4087FD0B
:101FC00077C0C701B6010E947940CB01AA2797FDCF
:101FD000A095BA2FED85FE85848F958FA68FB78F3C
:101FE000128A118A468A578A608E718E81E090E04B
:101FF000938F828F83E0808380E090E02E960FB6EF
:10200000F894DEBF0FBECDBFDF91CF911F910F912E
:10201000FF90EF90DF90CF90BF90AF909F908F9008
:102020007F906F905F904F903F902F90089580E049
:1020300090E0E4CF23EC38EB42E35EEBC501B40162
:102040000E94B84118160CF05ACF123061F11330CB
:1020500021F182E0AD85BE858C93FD0141825282E3
:1020600063827482128A118A8DE491E0A0E0B0E06C
:10207000848F958FA68FB78F80E090E0BFCF898146
:102080009A81029709F0F0CE8FEF9FEFB7CFA98129
:10209000BA81139709F0E8CEF7CF29813A8123302E
:1020A0003105B9F6F1CFE981FA81329791F6ECCF9B
:1020B000C701B60190580E94794087CFF7FAF09493
:1020C000F7F8F094AD85BE85D296CD92DD92ED9273
:1020D000FC92D59745CFD701C601B05889879A871A
:1020E000AB87BC879C01AD01C501B4010E941140C2
:1020F00020E030E04AE754E40E94BC4169837A83DF
:102100008B839C8320E030E0A901C501B4010E94CB
:10211000B8411816BCF659854A853B852C8516CFE3
:102120002F923F924F925F926F927F928F929F92E7
:10213000AF92BF92CF92DF92EF92FF920F931F93D5
:10214000CF93DF93CDB7DEB72E970FB6F894DEBFEF
:102150000FBECDBF9A8389834A015B0128013901F3
:102160001C0121E0221A310883E8829DF001839D41
:10217000F00D1124ED58F14F8CE29CEEAAECB3E483
:1021800085839683A783B08711861286138614866B
:102190001091490D123009F4EFC0133009F4F4C066
:1021A00083E8829DF001839DF00D1124ED58F14FDD
:1021B000FE87ED8786A997A9A0ADB1AD8D839E83DB
:1021C000AF83B8879C01AD01C501B4010E94A83F4F
:1021D0000E94090D6B017C0120E030E0A9010E9402
:1021E0000D4087FDA2C023EC38EB42E35EE3C7015C
:1021F000B6010E940D4087FDA3C020E030E0A90198
:10220000C301B2010E940D4087FDC4C0A301920129
:10221000C701B6010E94114020E030E04AE754E4D3
:102220000E94BC4169837A838B839C8320E030E0E9
:10223000A901C701B6010E94B84118160CF0DCC014
:10224000542D452D362D272D852F942FA32FB22FBA
:10225000ED85FE8582AB93ABA4ABB5AB83E8829DE5
:10226000F001839DF00D1124ED58F14F82A993A93F
:10227000A4A9B5A986A797A7A0ABB1AB8D819E8174
:10228000AF81B885ED85FE8581839283A383B48376
:10229000158616861786108A20E030E040E751E464
:1022A00069817A818B819C810E9411406B017C0144
:1022B00020E030E0A9010E940D4087FD96C0C701D3
:1022C000B6010E947940CB01AA2797FDA095BA2FAD
:1022D000ED85FE85848F958FA68FB78F128A118A20
:1022E000868A978AA08EB18E81E090E0938F828F4C
:1022F00083E0808380E090E02E960FB6F894DEBFF6
:102300000FBECDBFDF91CF911F910F91FF90EF9046
:10231000DF90CF90BF90AF909F908F907F906F9005
:102320005F904F903F902F90089523EC38EB42E35D
:102330005EEBC701B6010E94B84118160CF05DCFE4
:10234000123009F44CC0133009F460C082E0AD854E
:10235000BE858C93FD0181829282A382B482128A0F
:10236000118A8DE491E0A0E0B0E0848F958FA68F74
:10237000B78F80E090E0C0CF89819A81029709F001
:102380000FCF8FEF9FEFB8CFA981BA81139709F0D4
:1023900007CFF7CFD301C201B05889879A87AB879F
:1023A000BC879C01AD01C701B6010E94114020E02D
:1023B00030E04AE754E40E94BC4169837A838B830E
:1023C0009C8320E030E0A901C701B6010E94B8411A
:1023D00018161CF559854A853B852C8535CFE98132
:1023E000FA81329709F0B2CFCCCFC701B60190582D
:1023F0000E947940CB0168CFD301C201B058ED856E
:10240000FE8582AB93ABA4ABB5AB28CF29813A81D3
:102410002330310509F09ACFB4CFD301C201EFCFF9
:102420002091490D223079F1233091F1019723E871
:10243000289FF001299FF00D1124ED58F14F2081C4
:10244000223071F138F0233049F02550223030F538
:1024500086E00895222301F1213001F523E8289F29
:10246000F001299FF00D1124ED58F14F20E030E0EC
:10247000A90162A973A984A995A90E94B841181657
:10248000ACF481E008958230910581F68FEF0895D4
:102490008330910559F6FACF80E0089587E00895DA
:1024A00081899289892B69F383E0089582E00895F8
:1024B0006235A9F0633581F0663459F0A098A1988F
:1024C00020E1829FC00111249093890080938800AD
:1024D0000895A09AA198F4CFA09AA19AF1CFA098BC
:1024E000A19AEECF6235A9F0633581F0663459F0D8
:1024F000A298A59820E1829FC001112490938B009F
:1025000080938A000895A29AA598F4CFA29AA59ADA
:10251000F1CFA298A59AEECF0F931F938A019B014A
:1025200077FD27C00F3F110519F010F00FEF10E0F5
:102530008130910591F074F0049764F477FD33C015
:10254000452B462B472BE9F066E4802F1F910F9116
:102550000C9472121F910F91089577FD1EC0452BA8
:10256000462B472BA1F066E4802F1F910F910C940E
:102570005812002711279801041B150B260B370B47
:10258000D1CF6EE4802F1F910F910C9472126EE4E4
:10259000802F1F910F910C94581262E5802F1F918C
:1025A0000F910C94581262E5802F1F910F910C949B
:1025B0007212CF93DF939C012150310943E8429F6F
:1025C000E001439FD00D1124CD58D14F1EA61FA668
:1025D00018AA19AA4D89413009F465C04230D9F1D1
:1025E000442309F491C0433099F54881423009F4FD
:1025F00083C0433009F490C043E8429FF001439FF9
:10260000F00D1124ED58F14F46A957A960AD71ADF9
:10261000E091490DE23009F488C0E33009F489C043
:1026200083E8829FF001839FF00D1124ED58F14F54
:1026300082E080834183528363837483128A118A88
:102640008DE491E0A0E0B0E0848F958FA68FB78FE6
:10265000DF91CF91089520E030E0A9016EA17FA124
:1026600088A599A50E940D40882391F383E0888373
:102670008FEF9FEFDC018C8F9D8FAE8FBF8F8EA968
:102680009FA9A8ADB9AD89839A83AB83BC838EA182
:102690009FA1A8A5B9A5B0588AAB9BABACABBDAB0D
:1026A0001A8A198AD5CF20E030E0A9016EA17FA156
:1026B00088A599A50E940D40882351F283E0888364
:1026C0008FEF9FEFDC018C8F9D8FAE8FBF8F8EA918
:1026D0009FA9A8ADB9AD89839A83AB83BC838EA132
:1026E0009FA1A8A5B9A58AAB9BABACABBDAB1A8A21
:1026F000198ADF91CF91089549895A89452B09F4A8
:102700007BCF1C8A1B8AA4CF188240E050E0BA011C
:10271000DF91CF910C948C1249815A816B817C811D
:10272000E091490DE23009F078CF029709F078CFB7
:102730008FCF039709F074CF8BCF10928A0210923B
:10274000730E1092F60E1092790F6EE480E00E94E4
:1027500058126EE480E00C947212019723E8289FCF
:10276000F001299FF00D1124ED58F14F8CE29CEE01
:10277000AAECB3E485839683A783B087118612867B
:102780001386148608956091490DE3E7FEE081E029
:1027900090E020E030E0623099F06330A9F04081B1
:1027A000442321F041895289452BA1F083309105C2
:1027B00071F02F5F3F4F0196ED57FF4F623069F781
:1027C0002130310561F7F5CF2230310541F780E046
:1027D00090E0089581E090E008952F923F924F920B
:1027E0005F926F927F928F929F92AF92BF92CF92A1
:1027F000DF92EF92FF920F931F93CF93DF93CDB7AA
:10280000DEB76A970FB6F894DEBF0FBECDBF3C01AE
:1028100049835A836B837C830D831E832F83388780
:1028200020E030E0A90169817A818B819C810E943E
:102830000D4087FDCDC320E030E0A9016D817E8190
:102840008F8198850E940D4087FDB8C320E030E05D
:10285000A901C701B6010E940D4087FDAAC3D3019B
:102860001197BA87A98783E88A9F80018B9F100DF3
:1028700011240D58114FF80162AD73AD882777FD13
:102880008095982F0E94AC402BED3FE049EC50E43E
:102890000E94BC41D801D6962D913D914D915C91FD
:1028A000D9970E94A93F9B01AC01C501B4010E94C8
:1028B000A83F2B013C0129813A814B815C81C701F2
:1028C000B6010E9411406B877C878D879E872D8182
:1028D0003E814F815885C701B6010E9411406B8B24
:1028E0007C8B8D8B9E8BF801128A118A20E030E060
:1028F000A901C301B2010E940D4087FDA9C12B852A
:102900003C854D855E85C701B6010E94BC4120E033
:1029100030E040E05FE30E94BC41B62EA72E982E27
:10292000892E2B893C894D895E89C701B6010E9499
:10293000BC4120E030E040E05FE30E94BC416F8793
:10294000788B898B9A8B9B01AC016B2D7A2D892D0D
:10295000982D0E94A93F9B01AC01C301B2010E94C6
:102960000D4087FFB2C1142D052DB62CA72C29814F
:102970003A814B815C81CA01B9010E94A93F9B0148
:10298000AC0160E070E080E89FE30E9411406B01C1
:102990007C012D813E814F815885CA01B9010E9479
:1029A000A93F9B01AC0160E070E080E89FE30E94DA
:1029B00011409B01AC01C701B6010E94A93F9B01D8
:1029C000AC01612F702F8B2D9A2D0E9411400E9417
:1029D00023426B017C0129813A814B815C810E94F9
:1029E00011404B015C012D813E814F815885C7010B
:1029F000B6010E9411406B877C878D879E8783E894
:102A0000A985BA858A9F10018B9F300C1124F10192
:102A1000ED58F14F1F0112AA13AA14AA15AAE55BDB
:102A2000FF4F1082C301B2010E940706F101EB596A
:102A3000FF4FFA87E987A70196010E94BC41A9854B
:102A4000BA856D937D938D939C931397C301B201C7
:102A50000E9407069B01AC018101075A1F4F698143
:102A60007A818B819C810E94BC41F80160837183D3
:102A700082839383C301B2010E9407069B01AC01CC
:102A80008101035A1F4F6D817E818F8198850E943D
:102A9000BC41DC01CB01B058F80180839183A28353
:102AA000B38386E0D1018C938FEF9FEFDC01F101BE
:102AB000848F958FA68FB78FE45BFF4F81E0808373
:102AC000D101D696CD90DD90ED90FC90D997F10193
:102AD000C182D282E382F482E35BFF4FC082D18263
:102AE000E282F382A985BA852D913D914D915C9149
:102AF000C501B4010E94BC4120E030E040E05FE34A
:102B00000E94BC419B01AC01C701B6010E94A93FD4
:102B10000E94090DF101EB5AFF4F6083718382839C
:102B2000938380915D0290915E02A0915F02B091CB
:102B30006002F101E759FF4F80839183A283B38341
:102B400020E030E04AE754E4C501B4010E94BC41F2
:102B50006B017C0160915D0270915E0280915F0269
:102B600090916002810103591F4F0E94AA409B016E
:102B7000AC01C701B6010E94A93F0E947E40F80146
:102B8000608371838283938320E030E04AE754E4DA
:102B90006B857C858D859E850E94BC414B015C01C7
:102BA00060915D0270915E0280915F02909160027F
:102BB00081010F581F4F0E94AA409B01AC01C50123
:102BC000B4010E94A93F0E947E40D8016D937D937D
:102BD0008D939C93139740905D0250905E0260909D
:102BE0005F027090600281010B581F4FA501940194
:102BF000C701B6010E94A93F6B017C01C301B2016C
:102C00000E94AA409B01AC01C701B6010E94A93FE6
:102C10000E947E40F80160837183828393836A9669
:102C20000FB6F894DEBF0FBECDBFDF91CF911F91DD
:102C30000F91FF90EF90DF90CF90BF90AF909F905B
:102C40008F907F906F905F904F903F902F9008955E
:102C5000C301B20190586F8B788F898F9A8F2B8523
:102C60003C854D855E85C701B6010E94BC4120E0D0
:102C700030E040E05FE30E94BC41B62EA72E982EC4
:102C8000892E2B893C894D895E89C701B6010E9436
:102C9000BC4120E030E040E05FE30E94BC416F8730
:102CA000788B898B9A8B9B01AC016B2D7A2D892DAA
:102CB000982D0E94A93F9B01AC016F89788D898D69
:102CC0009A8D0E940D4087FD8DC183E829853A8544
:102CD000829F1001839F300C1124B1016D58714FF8
:102CE0001B01DB01D2961D921D921D921C92D5975D
:102CF000FB01E55BFF4F1082C301B2010E94070692
:102D00009B01AC0181010B591F4FC701B6010E9405
:102D1000BC41F8016083718382839383C301B20154
:102D20000E9407069B01AC018101075A1F4F698170
:102D30007A818B819C810E94BC41D8016D937D93E7
:102D40008D939C931397C301B2010E9407069B01C8
:102D5000AC018101035A1F4F6D817E818F8198855F
:102D60000E94BC41DC01CB01B058F8018083918303
:102D7000A283B38386E0D1018C938FEF9FEFDC01B8
:102D8000F101848F958FA68FB78FE45BFF4F108280
:102D9000F10186A997A9A0ADB1AD81839283A383E8
:102DA000B4838101035B1F4FF80180839183A28369
:102DB000B383C301B2010E9407069B01AC01F1E598
:102DC0002F0E311C69817A818B819C810E94BC41CC
:102DD0002B853C854D855E850E94BC412B853C85BD
:102DE0004D855E850E94BC4120E030E040E05FE31D
:102DF0000E94BC41D8012D913D914D915C910E9462
:102E0000A93FF101608371838283938320E030E0E6
:102E1000A901C301B2010E940D4087FDEDC0C301AD
:102E2000B2012B2D3A2D492D582D0E94A83F2F85F8
:102E3000388949895A890E94A83F69837A838B839C
:102E40009C8320E030E0A9010E940D4089809A8097
:102E5000AB80BC8087FDCBC0C301B2010E940706D6
:102E60009B01AC0183E869857A85869F8001879FF5
:102E7000100D11240D58114F180175E5270E311C46
:102E8000C501B4010E94BC41F801EF5AFF4F2081F7
:102E90003181428153810E94A93FD1016D937D937D
:102EA0008D939C93139780915D0290915E02A09107
:102EB0005F02B0916002F801E759FF4F8083918370
:102EC000A283B38320E030E04AE754E46B857C853D
:102ED0008D859E850E94BC414B015C0160915D0225
:102EE00070915E0280915F02909160023801BDE6B0
:102EF0006B0E711C0E94AA409B01AC01C501B4017C
:102F00000E94A93F0E947E40F30160837183828307
:102F1000938340905D0250905E0260905F027090DB
:102F20006002A701960169817A818B819C810E9450
:102F3000114020E030E04AE754E40E94BC419B018C
:102F4000AC01C501B4010E94A93F6B017C01C30122
:102F5000B2010E94AA409B01AC01C701B6010E94C8
:102F6000A93F0E947E40F801EF58FF4F60837183B4
:102F7000828393830B581F4F0E94AA406B017C01F0
:102F800020E030E04AE754E46B897C898D899E8992
:102F90000E94BC419B01AC01C701B6010E94A93F40
:102FA0000E947E40D8016D937D938D939C931397DF
:102FB00036CEF7FAF094F7F8F09451CC8D819E81DB
:102FC000AF81B885B0588D839E83AF83B8873ECCE0
:102FD00069817A818B819C81905869837A838B8304
:102FE0009C8329CC1F89088DB98CAA8CC0CCB7FAD8
:102FF000B094B7F8B09430CFC301B201905811CF5C
:1030000020E030E005C02F5F3F4F2034310559F0FC
:10301000F901EE0FFF1FE953F64D408151818417EE
:10302000950789F7089520E030E005C02F5F3F4FF6
:1030300020343105B9F3F901EE0FFF1FE953F64DC6
:1030400040815181452B91F7918380830895EF92C0
:10305000FF920F931F93CF93DF93CDB7DEB72997DE
:103060000FB6F894DEBF0FBECDBF8C01DC01189601
:103070008C9118971F928F9317968C9117971F9288
:103080008F9313968C9113978F9312968C9112971E
:103090008F9315968C911F928F9389EA92E09F935C
:1030A0008F938AE49DE09F938F930E94A01A0FB69E
:1030B000F894DEBF0FBECDBFD80115968C91863D2A
:1030C00008F5813D08F07CC0803D79F4F8018781E6
:1030D00090E0982F882720918802309189024085BE
:1030E000842B8217930709F48AC029960FB6F894A7
:1030F000DEBF0FBECDBFDF91CF911F910F91FF902B
:10310000EF900895863DB1F1873D79F7F801878109
:1031100090E0982F8827209188023091890240857D
:10312000842B8217930709F780918502882309F47D
:1031300047C08091880290918902892B09F440C090
:1031400080918A028D7F813009F4A2C0209184028F
:103150008091800290918102A0918202B0918302BD
:10316000820F911DA11DB11D87709927AA27BB272A
:10317000FC0139C0D80117968C91179790E0982FD1
:103180008827209188023091890218964C911897CF
:10319000842B8217930709F0A8CF80918802909121
:1031A0008902892B09F4A1CF80918502882309F433
:1031B0009CCF12968D919C9113970E94001895CFE9
:1031C000809184024091800250918102609182023C
:1031D00070918302480F511D611D711D4770552765
:1031E00066277727FA01EE0FFF1FE156FF4E118386
:1031F0000083809184028F5F8093840276CF638501
:1032000070E041E0C8010A960E945D1B7C01D80174
:103210001B968C911B97F801E80FF11D8185F70132
:103220009181E90FF11D3197808319968C91882344
:1032300009F45BCF81ED80936003F70181818B5F9F
:103240008093610380918802909189029093620338
:10325000809188029091890280936303418150E0BC
:10326000B70184E693E00E940249D7011196EC91E0
:10327000F0E0E05AFC4F82E18483F80142815381FF
:1032800020E06091610380E693E00E94032D2DCF42
:1032900082E080938A028091880290918902892B32
:1032A000F1F080ED898389E08A8380918802909192
:1032B00089029B8380918802909189028C831D8270
:1032C0008DE48E8383E08F83188682E1898720E0F6
:1032D0004FEF5FEF69E0CE0101960E94032D0E943F
:1032E0009D1303CFCF92DF92EF92FF920F931F9324
:1032F000CF93DF936C01C9EADEE07C01EE0CFF1C8A
:103300008701000F111F000F111F000F111F0E1951
:103310001F090B56164F6C817D81882777FD80959C
:10332000982F0E94AC409B01AC010E94A93F2BED5D
:103330003FE049E450E40E94BC419B01AC0168813C
:1033400079818A819B810E94A93FF80161937193E1
:10335000819391938F01CD57DF4FF0E1C233DF07A7
:10336000D1F6F701EE0FFF1FEE0FFF1FEE0FFF1F4D
:10337000EE19FF09EB56F64F81E090E095878487C0
:1033800080918D0290918E02C816D90638F08FEF89
:10339000C81AD80AD0928E02C0928D02DF91CF91C6
:1033A0001F910F91FF90EF90DF90CF900895CF92F3
:1033B000DF92EF92FF920F931F93CF93DF932091B1
:1033C0008D0230918E022817390768F1880F991FF6
:1033D000FC01EE0FFF1FEE0FFF1FEE0FFF1FE81B9C
:1033E000F90BEB56F64F84859585892BE1F099E929
:1033F000C92E9EE0D92E7F01C0E0D0E0F7014191B7
:103400005191619171917F012196F60100811181A5
:1034100022813381CE010E94F40EF3E8CF0ED11C3D
:10342000C330D10559F7DF91CF911F910F91FF90D4
:10343000EF90DF90CF9008959091C80095FFFCCF5A
:103440008093CE0008951092C7061092C60610927F
:10345000C9061092C80680E392E10E94593B40E001
:1034600050E061EC77E280E392E10E94B53B20E01E
:1034700030E04CE15AE160E080E392E10E94C03B21
:1034800083E090E09093CD008093CC00E8ECF0E0F6
:1034900080818D7F808388E98093C9001092AF106E
:1034A00008951F920F920FB60F9211240BB60F9230
:1034B0002F933F934F935F938F939F93EF93FF933C
:1034C0008091C8004091CE008091C6069091C706B9
:1034D0002091C8063091C90650E4852782179307CA
:1034E00059F48091C6069091C70601968F77992767
:1034F0009093C7068093C6068091C8069091C9062E
:1035000001968F7799279093C9068093C806E0911A
:10351000C806F091C9063197EF73FF27EA53F94FB8
:103520004483FF91EF919F918F915F914F913F91D4
:103530002F910F900BBE0F900FBE0F901F901895FC
:10354000CF93DF93CDB7DEB780E090E0DF91CF91EE
:103550000895CF93DF93CDB7DEB7DA950FB6F89421
:10356000DEBF0FBECDBFFE01EB5FFE4F419151911B
:103570009F016EEF70E0CE0103960E94484997FDCF
:1035800021C00396813021E09207C8F48A839927ED
:10359000019723E22983E1E0F0E0EC0FFD1FE80F43
:1035A000F91F1082CE0101960E943706D3950FB6FF
:1035B000F894DEBF0FBECDBFDF91CF91089580E0BC
:1035C00091E0E4CF83E08A8382E090E0E2CF0F9342
:1035D0001F93CF93CFB7F8942091C6063091C706BA
:1035E0008091C8069091C90628173907B1F1E0917A
:1035F000C606F091C706EF73FF27EA53F94F6481BF
:103600002091C6063091C7068091C8069091C906E0
:103610002817390739F18091C6069091C70601969F
:103620008F7799279093C7068093C606789400E019
:1036300010E020E030E040E050E080E392E10E94C2
:10364000F23BF8942091C6063091C7068091C806D7
:103650009091C9062817390751F6CFBFCF911F9116
:103660000F9108950E940D480F931F93CF93DF93FE
:103670008C01EB01FC0180818093C604862F8A5F58
:103680008093C7045093C8044093C9042093CA048C
:10369000AB01B8018BEC94E00E940249F801EC0FF9
:1036A000FD1F31978081CA53DB4F8D8386EC94E0F8
:1036B000DF91CF911F910F9108952F923F924F92DA
:1036C0005F926F927F928F929F92AF92BF92CF92B2
:1036D000DF92EF92FF920F931F93CF93DF93CDB7BB
:1036E000DEB7C450D1400FB6F894DEBF0FBECDBFD9
:1036F0001C018FE0E7EBF3E0DF01282F1D922A95F4
:10370000E9F7E8EAF3E0DF011D928A95E9F7620D37
:10371000731D61507109FB018081D10181113BC092
:103720008C918E3349F008F441C0823429F040F086
:103730009CEB980F933020F4F1019281933030F498
:1037400090E0FC01F097E236F10560F18FEF809395
:10375000800383E08093810381E18093820380E88A
:1037600093E0CC5FDE4F0FB6F894DEBF0FBECDBF47
:10377000DF91CF911F910F91FF90EF90DF90CF904D
:10378000BF90AF909F908F907F906F905F904F9081
:103790003F902F9008958C9190E0FC01F097E236D5
:1037A000F105A0F6E057FF4F0C9484469EEC980F6D
:1037B000943030F6F1019281933010F2C7CFF101CD
:1037C00082819381A481B5818093D40E9093D50E8C
:1037D000A093D60EB093D70E82819381A481B58138
:1037E0008093570F9093580FA093590FB0935A0F8F
:1037F00082819381A481B5818093DA0F9093DB0F4E
:10380000A093DC0FB093DD0F82819381A481B581F9
:1038100080935D1090935E10A0935F10B093601042
:1038200080E18093C60383E08093C70381E18093A6
:10383000C80380918502882311F40C94FB268091A3
:10384000690E90916A0E909380038091690E909119
:103850006A0E8093810380E18093C60385E08093A4
:10386000C70380918003909181039093C903809353
:10387000C80381E18093CA0386EC93E072CF4130A4
:1038800011F40C94742744E050E068E572E0C10143
:1038900002960E94F548892B19F080E090E061CFF4
:1038A00081E28093800389E0809381038091690E97
:1038B00090916A0E909382038091690E90916A0EA6
:1038C000809383038091580290915902A0915A02EB
:1038D000B0915B028093840390938503A093860349
:1038E000B09387031092880380E893E03ACFD10128
:1038F00013964D915D916D917C91169712968C91D6
:1039000090E001960E94420D80E18093C60383E01F
:103910008093C70381E18093C80386EC93E021CFB5
:10392000D1011296EC91B3E8EB9FF0011124ED5810
:10393000F14F86A997A9A0ADB1AD80938003909374
:103940008103A0938203B093830320E12093C603F5
:1039500027E02093C7038093C8039093C903A093E3
:10396000CA03B093CB0381E18093CC0386EC93E050
:10397000F8CED1011296EC91B3E8EB9FF00111243F
:10398000ED58F14FC6A8D7A8E0ACF1AC62AD73AD6D
:10399000882777FD8095982F0E94AC402BED3FE063
:1039A00049EC50E40E94BC419B01AC01C701B60147
:1039B0000E94A93F609380037093810380938203E8
:1039C0009093830320E12093C60327E02093C7034D
:1039D0006093C8037093C9038093CA039093CB0389
:1039E00081E18093CC0386EC93E0BBCE80915D02B5
:1039F00090915E02A0915F02B0916002809380037B
:103A000090938103A0938203B0938303D101129614
:103A1000EC91B3E8EB9FF0011124ED58F14F86A92A
:103A200097A9A0ADB1AD8093840390938503A09333
:103A30008603B093870380E18093C6038BE0809375
:103A4000C70388E0E0E8F3E0A8ECB3E001900D9252
:103A50008A95E1F781E18093D00386EC93E081CEF3
:103A6000F101828190E001960E9410128093800300
:103A700090E19093C60394E09093C7038093C803AA
:103A800081E18093C90386EC93E06BCE82E99AE0F2
:103A9000A6E8B0E48093800390938103A09382030F
:103AA000B093830380E18093C60387E08093C703CC
:103AB00082E99AE0A6E8B0E48093C8039093C90332
:103AC000A093CA03B093CB0381E18093CC0386EC2F
:103AD00093E047CED10112968C910E9448056ACF9F
:103AE00080917C0290917D02A0917E02B0917F0234
:103AF00024CFF10182819381A481B58180937C02DE
:103B000090937D02A0937E02B0937F02FDCE8091C0
:103B10007A0290917B022FE0289FB001299F700DBF
:103B2000112480E090E00E94AA4020E030E04AE7C3
:103B300054E40E9411403ECFD10112966D917D91C7
:103B40008D919C91159720E030E04AE754E40E9463
:103B5000BC4120E030E040E751E40E9411400E9467
:103B60007E4070937B0260937A02CECE0E949D13BA
:103B7000CBCE82E67BCFF101428153816481758196
:103B800086810E94FE03C0CED10112968C91809353
:103B90005702BACE710182E0E80EF11CF9E9AF2EAE
:103BA000FEE0BF2EC12CD12CD7014D915D916D91BE
:103BB0007D917D01BFEFCB1ADB0AF50100811181F8
:103BC00022813381C6010E949010F3E8AF0EB11C30
:103BD00023E0C216D10441F797CED10112964D9140
:103BE0005D916D917C91159781E090E00E94420D6E
:103BF000F101468157816085718582E090E00E94E5
:103C0000420DD1011A964D915D916D917C911D9758
:103C100083E090E00E94420D77CE8091A90E9091B2
:103C2000AA0EA091AB0EB091AC0E8093800390933E
:103C30008103A0938203B093830380912C0F909112
:103C40002D0FA0912E0FB0912F0F8093840390938E
:103C50008503A0938603B09387038091AF0F909163
:103C6000B00FA091B10FB091B20F809388039093E1
:103C70008903A0938A03B0938B0380E18093C603EA
:103C800093E19093C703E0E8F3E0A8ECB3E0019080
:103C90000D928A95E1F781E18093D80386EC93E059
:103CA00060CD09EA1EE0E0E8AE2EE3E0BE2EF801AA
:103CB000C080D180E280F38064817581882777FDA0
:103CC0008095982F0E94AC402BED3FE049EC50E4EA
:103CD0000E94BC419B01AC01C701B6010E94A93FF3
:103CE000D5016D937D938D939D935D010D571F4F6E
:103CF000B0E1053B1B07D9F6C0CF80915D029091E2
:103D00005E02A0915F02B091600280938003909365
:103D10008103A0938203B09383038091A90E9091B5
:103D2000AA0EA091AB0EB091AC0E80938403909339
:103D30008503A0938603B093870380912C0F909105
:103D40002D0FA0912E0FB0912F0F80938803909389
:103D50008903A0938A03B0938B038091AF0F909156
:103D6000B00FA091B10FB091B20F80938C039093DC
:103D70008D03A0938E03B0938F0380E18093C603DD
:103D800087E18093C70384E1E0E8F3E0A8ECB3E0C7
:103D900001900D928A95E1F781E18093DC0386EC36
:103DA00093E0DFCC80915D0290915E02A0915F0272
:103DB000B09160028093800390938103A09382036B
:103DC000B093830309EA1EE074E8A72E73E0B72ED0
:103DD000F801C080D180E280F380648175818827FA
:103DE00077FD8095982F0E94AC402BED3FE049EC89
:103DF00050E40E94BC419B01AC01C701B6010E9486
:103E0000A93FD5016D937D938D939D935D010D57D2
:103E10001F4FB0E102331B07D9F6AFCFD101129685
:103E2000EC918E2F90E0B3E8EB9FF0011124ED5858
:103E3000F14F06A117A120A531A5F10143815481BD
:103E40006581768101960E946E0D5ECDD10112963C
:103E5000EC918E2F90E0B3E8EB9FF0011124ED5828
:103E6000F14F06A117A120A531A5F101438154818D
:103E70006581768101960E94901046CDF101828184
:103E800090E001960E94AD13D10113968C91139787
:103E90001296EC91B3E8EB9FF0011124ED58F14F2D
:103EA000858BF101828190E001960E94D9122CCD80
:103EB000D1011296EC91B3E8EB9FF0011124ED587B
:103EC000F14F8589D3CDF10183809480A580B680A0
:103ED00022E93AE046E850E4C501B4010E94B84145
:103EE00018160CF4CCC722E93AE046E850ECC501BC
:103EF000B4010E940D4087FF08C012E9812E1AE02C
:103F0000912E16E8A12E10ECB12EF101A28183E8CA
:103F10008A9FD0011124AD58B14F96968D929D92F3
:103F2000AD92BC929997E2818E9FF0011124ED58D9
:103F3000F14F8589813019F0823009F4CBC782AA0C
:103F400093AAA4AAB5AAE0CCD1011296EC91B3E849
:103F5000EB9FF0011124ED58F14F86A197A1A0A588
:103F6000B1A5EBCC7101E2E0EE0EF11CB9E9AB2E8C
:103F7000BEE0BB2EC12CD12CD7014D915D916D912E
:103F80007D917D01BFEFCB1ADB0AF5010081118124
:103F900022813381C6010E946E0DF3E8AF0EB11C81
:103FA00023E0C216D10441F7AFCC710182E0E80EE4
:103FB000F11CA9E9AA2EAEE0BA2EC12CD12CD70152
:103FC0004D915D916D917D917D01BFEFCB1ADB0A23
:103FD000F5010081118122813381C6010E94F40E16
:103FE000F3E8AF0EB11C23E0C216D10441F78CCC2C
:103FF000F10187849088A188B288C384D484E58441
:10400000F68407811085218532854381548165813D
:104010007681828190E001960E94ED1375CC40E09C
:1040200080E090E005C001968034910509F430C726
:10403000FC01EE0FFF1FE953F64D20813181232B48
:1040400091F34F5FD10112962C91241760F7808174
:1040500091819093800380938103FDCB80918D02A9
:1040600090918E0203CDF101828120918D023091D9
:104070008E0290E02817390708F468CB880F991F43
:10408000FC01EE0FFF1FEE0FFF1FEE0FFF1FE81BDF
:10409000F90BEB56F64F80819181A281B381809319
:1040A000800390938103A0938203B0938303D10193
:1040B0001296EC91BEE0EB9FF0011124EB56F64F07
:1040C00084819581A681B781809384039093850331
:1040D000A0938603B0938703D1011296EC91BEE0C2
:1040E000EB9FF0011124EB56F64F80859185A28558
:1040F000B3858093880390938903A0938A03B09338
:104100008B0310928C0310928D0310928E031092E9
:104110008F03B3CDF101418150E043505109B1010A
:104120006E5F7F4F80E893E00E940249D1011196B3
:104130000C9110E080E18093C603A801435051091F
:104140000093C70360E873E088EC93E00E940249A3
:10415000F801EB53FC4F81E1808386EC93E001CBC7
:104160006101F2E0CF0ED11CE8E8AE2EEEE0BE2EEB
:10417000710126E0E20EF11C00E010E0D6018D9105
:104180006D01F5018083D7014D915D916D917D9118
:104190007D01418B528B638B748B0F5F1F4FC80166
:1041A0000E94D912C8010E94AD13F3E8AF0EB11CF2
:1041B0000430110519F7A8CB40E080E090E0FC0145
:1041C000EE0FFF1FE953F64D20813181232B09F0BB
:1041D0004F5F01968034910591F74093800380E111
:1041E0008093C60384E08093C7034093C80381E1B2
:1041F0008093C90386EC93E0B4CA80E18093C60340
:1042000083E08093C70381E18093C803D1011296B4
:104210008C910E94BE0286EC93E0A3CA8091690E45
:1042200090916A0E909380038091690E90916A0E2E
:1042300012CF8091472B811189CA8AE08093472B46
:1042400063CB8091AF10882329F120EB30E1E1E8C6
:10425000F3E060E371E140E050E0D9018C91119608
:104260009C912E5F3F4FDF0111979C938083DB0170
:10427000CD90DD90ED90FD90BD01C182D282E382B0
:10428000F4824F5F5F4F8091AF10369690E04817F1
:1042900059071CF30091AF10B6E00B9F8001112469
:1042A00080E18093C60383E0800F8093C703A80159
:1042B00060E873E088EC93E00E940249F801EA5359
:1042C000FC4F81E1828386EC93E04BCA1092AF10E1
:1042D0001BCB0E94C90580E090E043CA85E0E1E085
:1042E000F3E0A8E5B2E001900D928A95E1F780E154
:1042F0008093C60387E08093C70380915802909112
:104300005902A0915A02B0915B028093C803909326
:10431000C903A093CA03B093CB0381E18093CC037C
:1043200086EC93E01ECAF101418150E0B101CE015B
:1043300001960E94024981E289834A8150E020E08F
:1043400030E0BE016F5F7F4F80E392E10E941E3F2D
:1043500080E090E006CA80E18093C60383E080930A
:10436000C70381E18093C803109255021092560250
:1043700086EC93E0F6C90E94C31378CB70E8C72E91
:1043800073E0D72EE3E7EE2EEEE0FE2EAA24A394F0
:10439000B12C00E010E00130110541F102301105AF
:1043A00009F4CFC50330110509F4C1C5D7018C91BB
:1043B000823009F43CC560E070E0CB01F601608317
:1043C000718382839383F4E0AF16B10409F455CC72
:1043D0000F5F1F4FBFEFAB1ABB0AE4E0CE0ED11C3C
:1043E000F3E8EF0EF11C01301105C1F68091490D83
:1043F0008230E1F62091AF0F3091B00F4091B10FB4
:104400005091B20F60917A0F70917B0F80917C0F69
:1044100090917D0F0E94A83F0E94090DABC54101FC
:1044200059E9A52E5EE0B52ECC24C394D12CD10140
:1044300012968C9190E096012150310902C0959519
:1044400087952A95E2F780FF58C0D40113968D9185
:104450009D910D90BC91A02DCF5FDE4F88839983F5
:10446000AA83BB83C150D140F50140805180628056
:10447000738020E030E0A901C301B2010E940D4029
:1044800087FD09C5D50150962D913D914D915C91C7
:104490005397CF5FDE4F688179818A819B81C150BC
:1044A000D1400E94A93FCF5FDE4F688379838A8322
:1044B0009B83C150D140F50164897589882777FDB8
:1044C0008095982F0E94AC402BED3FE049EC50E4E2
:1044D0000E94BC419B01AC01CF5FDE4F68817981B6
:1044E0008A819B81C150D1400E94A93FAB01BC0190
:1044F00093018201C6010E94F40EFFEFCF1ADF0A7A
:1045000024E0820E911C83E8A80EB11C94E0C91629
:10451000D10409F08CCFF8C9B1016C5F7F4FD10194
:1045200013964C91139712968C910E94DB2F0E9448
:104530004230892B09F4E8C909C9F101438160E8D7
:1045400073E082810E94F72F0E944230892B09F08C
:10455000FDC8D10113960C9180E18093C60383E0DE
:10456000800F8093C70310E0A2CEF1014381E40FD6
:10457000F11D048120E833E0B1016C5F7F4FD10170
:1045800012968C910E9415300E944230892B09F0BE
:10459000DDC8F1018381E80FF11D0481DDCFF10158
:1045A00083819481A581B681228113E8129FF00155
:1045B0001124ED58F14F82A793A7A4A7B5A7D10165
:1045C0001296EC9112971E9FF0011124ED58F14FB5
:1045D00085E0808317968C91179718968C90189782
:1045E000912CA12CB12C540199248824B82A1A9614
:1045F0008C911A97882A19968C9190E0982F882789
:10460000AA2797FDA095BA2F882A992AAA2ABB2AF9
:104610000E94C313892B61F4D1011296EC911E9F65
:10462000F0011124ED58F14F12AA13AA14AA15AAE9
:1046300081149104A104B10409F4A2C3F10102811F
:10464000F3E80F9F800111240D58114FC501B401EB
:104650002FE030E040E050E00E944346D8015C96F5
:104660002D933D934D935C935F974EC9D101129664
:10467000EC918E2F90E0B3E8EB9FF0011124ED5800
:10468000F14F06A117A120A531A5F1014381548165
:104690006581768101960E94F40E36C90E946505F7
:1046A00089C9D10112968C91129790E0982F882792
:1046B00013962C91822B0E94AD0126C90E945003B3
:1046C000811104C48091420D9091430D9093810318
:1046D0008093800380914A0E90914B0E90938303B8
:1046E000809382038091700E9091710E9093850358
:1046F0008093840380E18093C60389E08093C7039D
:1047000086E0E0E8F3E0A8ECB3E001900D928A9532
:10471000E1F781E18093CE0386EC93E022C880919B
:10472000490DA4C98091460D9091470DA091480D67
:104730008093800390938103A093820320E12093D0
:10474000C60326E02093C7038093C8039093C90350
:10475000A093CA0381E18093CB0386EC93E00C9491
:10476000B11B83E0809380031092810389E08093E2
:10477000820380E18093C60386E08093C703809123
:10478000800390918103A09182038093C80390934A
:10479000C903A093CA0381E18093CB0386EC93E025
:1047A0000C94B11BF101828190E0982F882723811E
:1047B000822B009709F04CC310928E0210928D024A
:1047C00010928C0210928B02109289021092880231
:1047D0004FEF60E080E00E94310396C8F1018281D2
:1047E00090E00E94721990C8D10112968C9190E0CD
:1047F0000E94D71989C81092AE0E1092AD0E109279
:10480000310F1092300F1092B40F1092B30F7CC87A
:104810001092800380E18093C60384E08093C703F5
:104820001092C80381E18093C90386EC93E00C9455
:10483000B11B08E81EE06101B4E0CB0ED11C20E002
:1048400030E0F101828190E0022E02C095958795BB
:104850000A94E2F780FDA6C2C90101965C019501A8
:104860000D571F4FB6E0CB0ED11C2430310549F750
:104870004BC880915D0290915E02A0915F02B09161
:1048800060028093800390938103A0938203B0938E
:10489000830349EAE42E4EE0F42E54E8A52E53E0BB
:1048A000B52E64E9C62E63E0D62E00E010E0F701D5
:1048B00040805180628073800F5F1F4F64817581DB
:1048C000882777FD8095982F0E94AC402BED3FE024
:1048D00049EC50E40E94BC419B01AC01C301B20110
:1048E0000E94A93FD5016D937D938D939D935D01AA
:1048F000C8010E941012F60181936F01F3E8EF0ED8
:10490000F11C0430110599F680E18093C6038BE118
:104910008093C70388E1E0E8F3E0A8ECB3E00190FE
:104920000D928A95E1F781E18093E00386EC93E0B4
:104930000C94B11BE3E7FEE080E090E044E0D1019D
:1049400012962C9130E0082E02C0359527950A94D6
:10495000E2F720FD40830196ED57FF4F843091052B
:1049600071F70C94841CF101418150E044505109CD
:10497000B1016D5F7F4F828190E0982F882742962A
:104980000E9473080C94841C91012D5F3F4FD1014C
:10499000189680E090E043E8F90151919F01F10100
:1049A0006281FC01469FE00DF11D1124EC54F14F92
:1049B00050835D91F1016281FC01469FE00DF11D84
:1049C0001124E754F14F508301968530910521F76A
:1049D0000C94841CF101C28013E81C9D6001112419
:1049E000C6018D58914F6C0125E33AEF4EE05DE32F
:1049F00063817481858196810E94A83FD601569675
:104A00006D937D938D939C935997D1011296EC9160
:104A100012971E9FF0011124ED58F14F88E080831A
:104A200017968C91179718968C901897912CA12C0B
:104A3000B12C540199248824B82A1A968C911A977B
:104A4000882A19968C9190E0982F8827AA2797FD9D
:104A5000A095BA2F882A992AAA2ABB2A0E94C31392
:104A6000892B61F4D1011296EC911E9FF001112463
:104A7000ED58F14F12AA13AA14AA15AA8114910491
:104A8000A104B10409F47CC1F1010281F3E8DF2E35
:104A9000D09E800111240D58114FC501B4012FE0A3
:104AA00030E040E050E00E944346D8015C962D93F0
:104AB0003D934D935C935F97D1011296EC911297C1
:104AC000DE9EF0011124ED58F14F8FEF9FEF91A37F
:104AD00080A312960C91D09E800111240051114F99
:104AE000C501B4010E94AA4020E030E04AE754E446
:104AF0000E941140F8016083718382839383D10106
:104B00001296EC91DE9EF0011124EC50F14F1182CF
:104B100010820C94841CB1016E5F7F4F44E050E022
:104B200082E194E00E947308F10182819381A48163
:104B3000B5818093580290935902A0935A02B09382
:104B40005B020C94841CD10112968C91129795EF04
:104B5000980F903158F08FEF8093800383E080931B
:104B6000810381E18093820312968C910E947337B6
:104B700081E00E946B378FEF80934701809147015E
:104B80000C94361DD10112968C91129790E0982FBB
:104B900088279093620280936102809161029091D4
:104BA000620213962C91822B909362028093610291
:104BB0008091880290918902892B11F00C94841CB9
:104BC00040E06FEF80E00E9431030C94841CF101FF
:104BD00082818093550280915502882309F443C154
:104BE00084E690E0A0E0B0E08093A9039093AA034C
:104BF000A093AB03B093AC0383E097E09093AE0334
:104C00008093AD0388EA93E00E947D2D0C94841C70
:104C1000D10112968C91129790E0982F882790934B
:104C20004402809343028091430290914402139680
:104C30002C91822B90934402809343020C94841C09
:104C4000F10182818093560280915602882309F4F3
:104C500010C184E690E0A0E0B0E08093B8039093A8
:104C6000B903A093BA03B093BB0384E796E0909393
:104C7000BD038093BC0387EB93E00E947D2D0C94D1
:104C8000841CF10183819481A581B681228113E87E
:104C9000129FF0011124ED58F14F868B978BA08F56
:104CA000B18FD1011296EC9112971E9FF001112441
:104CB000ED58F14F87E0B3CEB1016E5F7F4F43E017
:104CC00050E080E294E00E947308F10182819381B8
:104CD000A48180934C0E90934D0EA0934E0E0C9495
:104CE000841CD10112962C911297243010F00C9450
:104CF000A61B13968D919D910D90BC91A02DE22F36
:104D0000F0E0EE0FFF1FEE0FFF1FEB5BFD4F808308
:104D10009183A283B3830C94841C80914C0E909158
:104D20004D0EA0914E0E04CDF10147816681858123
:104D30000E9431030C94841C6101F4E0CF0ED11C5D
:104D400001E010E0D10112968C9190E09801215081
:104D5000310902C0959587952A95E2F780FD56C0E6
:104D60000F5F1F4FF2E0CF0ED11C0430110551F739
:104D70000C94841C10926202109261020C94841CA8
:104D8000D1011296EC91B3E8EB9FF0011124ED589C
:104D9000F14F8FEF9FEFDC01848F958FA68FB78F38
:104DA0000C94841CF60131978081D8018C93F60114
:104DB000808190E01C969C938E931B97418052803B
:104DC000638074805901FFEFAF1ABF0AC5010E94CA
:104DD000D91277FC72C0C301B2012FE030E040E08D
:104DE00050E00E946546D80117962D933D934D9350
:104DF0005C931A9734CD80918602909187029093AC
:104E00008003809186029091870225C9F60131972F
:104E1000408150E0542F4427F6018081482B6627BB
:104E200057FD6095762FC8010E948C1299CFD696B7
:104E30002D913D914D915C91D99711966D917D91F8
:104E40008D919C9114970E94A83F0E94090DB6CAAB
:104E500090938902809388024681658184810E94B3
:104E600031030C94841C88EA93E00E94492D0C9431
:104E7000841C87EB93E00E94492D0C94841C02E96A
:104E8000802E0AE0902E06E8A02E00E4B02E3DC849
:104E900080E090E0DEC8CF5FDE4F88819981AA81F3
:104EA000BB81C150D140B058CF5FDE4F888399831A
:104EB000AA83BB83C150D140E5CA8FEF9FEFDC01CD
:104EC000F80187839087A187B287C9CC8AE00E94C6
:104ED000C003F8CBB7FAB094B7F8B09482AA93AAFB
:104EE000A4AAB5AA0C94841C84E68093800387E06E
:104EF00080938103F1018281809382038381809377
:104F00008303848180938403858180938503109239
:104F1000860320E04FEF5FEF67E080E893E00E94B8
:104F2000032D892B11F00C94A61B0C94841C109259
:104F30008C0310928D0310928E0310928F030C94A9
:104F40003D1E8091490D833009F030CA20912C0F0D
:104F500030912D0F40912E0F50912F0F6091F70E31
:104F60007091F80E8091F90E9091FA0E0E94A83F70
:104F70000E94090DD6016D937D938D939C93139799
:104F800027CACF93DF93EC016A818091690E9091DB
:104F90006A0E462F50E0892F99274817590709F4C0
:104FA00053C08B81611131C081112FC06E8170E0BF
:104FB00041E0CE0105960E945D1B2E81FE01E20FAD
:104FC000F11D2481FC0121114DC02181E20FF11D51
:104FD000319721E12083009719F14A8150E0542F45
:104FE00044272B81422BFC01618170E021E00E946B
:104FF000341BFC01418150E020E030E0BC0180E343
:1050000092E1DF91CF910C941E3F542F4427482BFF
:1050100020E06E81CE0105960E94032D892B19F4A4
:10502000DF91CF9108958FEF8093C60583E0809341
:10503000C70581E18093C80521E040E050E063E0CE
:1050400070E086EC95E0D3CF7B818091690E9091E2
:105050006A0E272F30E099272817390709F4A6CFC1
:10506000872FA0CF3181E30FF11D31972083B3CF7C
:105070001092472B0895FC018785882391F0809139
:1050800093029091940201969093940280939302DC
:1050900086E08093472B80919302909194024F97E2
:1050A00034F010929402109293021092472B0895BC
:1050B000FC018785811129C081E00E94C0030E9404
:1050C000FE4790936A0E8093690E8091690E9091CD
:1050D0006A0E97FD09C08091690E90916A0E9068E2
:1050E00090936A0E8093690E8091690E90916A0E7A
:1050F0008E7F90936A0E8093690E109294021092A4
:10510000930281E08093472B0895109294021092AD
:1051100093028091690E90916A0E816090936A0E5D
:105120008093690E8091690E90916A0E0E94693099
:105130001092472B0895CF93DF93EC018F8588233E
:1051400009F455C080918F0290919002880F991FA9
:105150009093900280938F020E94FE4760918F028D
:10516000709190020E942F46909392028093910238
:10517000809193029091940201969093940280936F
:10518000930288E08093472B809193029091940240
:105190004F971CF4DF91CF91089581E08F9389E7B9
:1051A0008F9386E093E09F938F9386E393E09F93A2
:1051B0008F930E94A91A82E090E0909390028093CE
:1051C0008F02109292021092910210929402109209
:1051D00093021092472B0F900F900F900F900F900B
:1051E0000F908A859B85DF91CF910C942247109276
:1051F0009402109293021092472B8A859B850E94FD
:10520000224782E090E09093900280938F02109268
:10521000920210929102DF91CF910895FC0187854F
:10522000811111C010929402109293021092472B98
:1052300082E090E09093900280938F02109292020D
:1052400010929102089580918F0290919002880FA0
:10525000991F9093900280938F020E94FE47609165
:105260008F02709190020E942F4690939202809339
:1052700091028091930290919402019690939402EE
:105280008093930280919302909194024F9724F41B
:1052900083E08093472B089581E08F9380E98F937B
:1052A00086E093E09F938F9386E393E09F938F93A1
:1052B0000E94A91A82E090E09093900280938F025E
:1052C0001092920210929102109294021092930204
:1052D0001092472B0F900F900F900F900F900F9000
:1052E00008950F931F93CF93DF9308E010E0C0E081
:1052F000D0E0CC0FDD1FCC0FDD1F809146018295E1
:1053000086958370C82B61E070E080E090E00E9499
:105310008405015011090115110559F7CE01DF91DE
:10532000CF911F910F9108951F93CF93DF930E9408
:105330004F3584E392E10E946F308FE00E94733713
:1053400081E00E946B3769EF7CE281E00E9475305A
:1053500044E050E068E572E082E194E00E94980841
:1053600010925C02E8E5F2E081918F3FB9F582E0AE
:10537000EC35F807C9F7C8E5D2E014E20E947129BC
:10538000AC019C01AFE8B3EE0E940C469695879560
:10539000929582958F7089279F708927189F900119
:1053A000199F300D1124CA01821B930B88838A3008
:1053B000E0F4805D888361E070E080E090E00E942E
:1053C0008405219682E0CC35D807C1F644E050E050
:1053D00068E572E082E194E00E94730881E08093C6
:1053E000472BDF91CF911F910895895C8883E3CF8C
:1053F0000F931F93CF93DF93CDB7DEB7DA950FB638
:10540000F894DEBF0FBECDBF8091472B90E08B306C
:10541000910508F083C0FC01EE50FF4F0C948446C8
:1054200080919902882309F4C7C180919902882349
:1054300009F4E1C140919502509196026091970262
:10544000709198028091950290919602A091970296
:10545000B09198020196A11DB11D80939502909381
:105460009602A0939702B09398028091990281507E
:10547000809399024F7055276627772725E8249F48
:10548000C001259F900D1124875B944D90939A3312
:1054900080939933009709F4B2C1FC01858190EDA6
:1054A000980F923608F0F1C18091610290916202EA
:1054B000892B09F4F1C1828193812091610230919D
:1054C00062028217930709F4E7C12EEF20930E07BB
:1054D00023E020930F0731E1309310079093BC290C
:1054E0008093BB2981E08093BD298093BE2980935E
:1054F000BF298EE097E09093C1298093C029209323
:10550000C2298BE398E29093C4298093C329109217
:1055100094021092930286E08093472BD3950FB6A6
:10552000F894DEBF0FBECDBFDF91CF911F910F91D9
:10553000089580919B02882309F447C180919C02C1
:1055400090919B02915090939B0290919C029F5F3F
:1055500090939C028F73F1E18F9FC00111248A58B0
:105560009A4D90930B0780930A0780919102909136
:105570009202181619060CF034C10197909392020A
:1055800080939102CBCF8FEF9FEF9093BC298093B4
:10559000BB2981E08093BD298093BE291092BF2949
:1055A0008EE58093472A23E02093482A1092492AC7
:1055B00087E49AE29093C1298093C0292093C2295D
:1055C00088E398E29093C4298093C32986E080936E
:1055D000472BA4CF8091993390919A33FC0160813D
:1055E000718142E005960E945D1B90930D078093A8
:1055F0000C07A0919933B0919A33ED91FC911197DA
:10560000EA0FFB1F2481FC013181E30FF11D31976B
:105610002083009709F45FC0E0919933F0919A33A9
:1056200025812E3509F41BC183E08093472B76CF6B
:105630008091910290919202181619060CF49DCF58
:10564000E0919933F0919A33828193819093BC29B0
:105650008093BB2981E08093BD298093BE2910925D
:10566000BF29E0910C07F0910D07F093C129E09359
:10567000C02981818093C2298EE099E29093C42948
:105680008093C32986EB99E20E94A83084E080933E
:10569000472B44CF0091993310919A33F8018581BB
:1056A000813209F4B6C042815381608171812481C5
:1056B000C80105960E94341B8C01FC01418150E019
:1056C00020E030E0BC0180E392E10E941E3F809127
:1056D000A40281117DC01092472B20CF86EB99E266
:1056E0000E94A83089E08093472B18CF0E9471292F
:1056F00090936A0E8093690E8091690E90916A0E64
:10570000019661F40E94712990936A0E8093690E4C
:105710008091690E90916A0E0196A1F38091690EB5
:1057200090916A0E97FD09C08091690E90916A0E62
:10573000906890936A0E8093690E8091690E9091A3
:105740006A0E8E7F90936A0E8093690E8091690E27
:1057500090916A0E0E9469308091690E90916A0E54
:1057600081609093BC298093BB2981E08093BD29FF
:105770008093BE298093BF298EE58093472A83E0DA
:105780008093482A1092492A87E49AE29093C1298B
:105790008093C0298091482A8093C22988E598E2A5
:1057A0009093C4298093C32986EB99E20E94A83084
:1057B0008BE08093472BB2CE80919B02882309F423
:1057C000ADCE87E08093472BA9CE80E090E0C9CE94
:1057D000F8014181B80182E00E94DB2F0E94423033
:1057E0007ACF80910A0790910B070E94A83089E038
:1057F0008093472B93CE10929A331092993385E081
:105800000E94C0030E94C905E0919933F0919A3338
:1058100045CEF801468150E0B8016B5F7F4FCE0165
:1058200001960E940249F80146814A8350E020E037
:1058300030E0BE016F5F7F4F80E392E10E941E3F28
:105840008091A402882309F446CF4A81BE016F5F8C
:105850007F4F82E00E94DB2F0E9442303CCF2281AA
:1058600033813093BC292093BB2921E02093BD29AB
:105870002093BE292093BF299093C1298093C029EA
:10588000FC0181818093C2293CCE805D8830D8F0B4
:1058900085E08093472B42CEA081B1811197AE0F56
:1058A000BF1F15968C91159790919A02891779F0E0
:1058B00092E09093472B80939A0281112FCE81E141
:1058C00015968C932BCECF010E94271827CE8111DD
:1058D00025CE82E08093472B10929A02F0CFFC01F4
:1058E00080919902803108F081C0809199024091A5
:1058F0009502509196026091970270919802480F1C
:10590000511D611D711D4F705527662777278781AF
:1059100090E025E8249FD001259FB00D1124A75BBE
:10592000B44D11969C938E9380919902409195026B
:10593000509196026091970270919802480F511D04
:10594000611D711D4F7055276627772780819181D2
:10595000249FD001259FB00D1124A75BB44D139651
:105960009C938E9312978091990240919502509149
:1059700096026091970270919802480F511D611D27
:10598000711D4F705527662777278281249FD0018C
:10599000259FB00D1124A75BB44D14968C93809174
:1059A00099024091950250919602609197027091F0
:1059B0009802480F511D611D711D4F7055276627B4
:1059C0007727249FC001259F900D1124478150E027
:1059D00065817681825B944D0E9402498091990293
:1059E0008F5F8093990280E090E008958FEF9FEFA2
:1059F0000895CF93DF93EC010E946F2C8C8181700E
:105A0000DF91CF910895DF92EF92FF920F931F9352
:105A1000CF93DF937C01D62E80919B028034B0F52A
:105A200080919C02E0919B02F0E0E80FF11DEF7382
:105A3000FF2781E18E9FE0018F9FD00D1124CA586E
:105A4000DA4D5E834D8381E08F8388872987062F17
:105A500010E0C8010E948A469B878A87A801B70187
:105A60000E940249DC868BE998E29E878D878091AF
:105A70009B028F5F80939B0280E090E0DF91CF914B
:105A80001F910F91FF90EF90DF9008958FEF9FEFA0
:105A9000F5CFCF93DF93FC0180919D0290919E0200
:105AA000E817F907B9F0A585B685109731F0838519
:105AB00094851C969C938E931B97C385D4852097C1
:105AC00011F0BE87AD871486138616861586DF9182
:105AD000CF910895A385B485B0939E02A0939D02B3
